:020000040000FA
:0400000025EF00F0F8
:060008004782A5EF1DF088
:100018004780D8CF6DF0E8CF6EF0E0CF6FF0F2A454
:1000280003D0CFEC1FF0FBD79EA003D0F6EC1CF05A
:10003800F6D76FC0E0FF6EC0E8FF6DC0D8FF4790ED
:060048001000E1EF1EF0C4
:10100000008054455354494E472100546573746918
:101010006E6721003332280C0106004E4F542041E8
:101020002056414C494420434F4D4D414E442100F0
:1010300054454D5000252E316600252E326600495C
:101040004E46004E414E00696E66006E616E005065
:071050004F54006C66000024
:10105800000E0101A16F000EA06FADC0B2F1AEC0CD
:10106800B3F1AFC0B4F1B0C0B5F1B5AF16D0000E52
:10107800A16F010EA06FB2C170F0B3C171F0B4C11D
:1010880072F0B5C173F01DEC20F070C0B2F171C000
:10109800B3F172C0B4F173C0B5F1000E0101B96FBC
:1010A800000EB86F41C0A5F142C0A6F1A051A11130
:1010B800D8A403D00001E3A514D00101A051A111C7
:1010C800D8A404D0000E8B6F2B0E03D0000E8B6FAC
:1010D8002D0E8A6F8AC116F1B84BB92BA507D8A077
:1010E800A607B2C170F0B3C171F0B4C172F0B5C156
:1010F80073F058EC19F0000170057111D8A453D0A1
:10110800BF0EB26FFF0EB36FB151B46FB56BB25172
:10111800B427B351B523B55106E11A0EB45DD8B062
:1011280002D0010E01D0000E01018C6F8D6B8C5125
:101138008D11D8B410D0160EB8250001706F010EAD
:101148000101B9210001716F3F0E726F100E736FAC
:101158008FEC1EF00FD0160EB8250001706F010E2F
:101168000101B9210001716F470E726F100E736F84
:101178008FEC1EF00101FD0EA527FF0EA623ABC0C4
:1011880080F0ACC081F0160E0001826F010E836FF3
:10119800A5C184F0A6C185F0D3EC1BF080C0ABF0EC
:1011A80081C0ACF01200B2C170F0B3C171F0B4C12B
:1011B80072F0B5C173F058EC19F00001705171115B
:1011C800D8A43BD0BF0EB26FFF0EB36FB151B46F4E
:1011D800B56BB251B427B351B523B55106E11A0E18
:1011E800B45DD8B002D0010E01D0000E01018E6F9F
:1011F8008F6B8E518F11D8B410D0160EB825000100
:10120800706F010E0101B9210001716F430E726FF9
:10121800100E736F8FEC1EF0ADD7160EB8250001B7
:10122800706F010E0101B9210001716F4B0E726FD1
:10123800100E736F8FEC1EF09DD7000E0101BA6F70
:10124800000EBB6F800EBC6F3F0EBD6F000EB76FF8
:10125800000EB66FB2C170F0B3C171F0B4C172F0D4
:10126800B5C173F0000E0001746F000E756F000EAB
:10127800766F000E776F6DEC1CF00001D8A01ED0C1
:1012880079D0BAC17EF0BBC17FF0BCC180F0BDC1CE
:1012980081F0000E826F000E836F200E846F410E66
:1012A800856F0AEC11F07EC0BAF17FC0BBF180C037
:1012B800BCF181C0BDF10101B64BB72BB2C197F0AB
:1012C800B3C198F0B4C199F0B5C19AF0000E00010D
:1012D800826F000E836F200E846F410E856FBAC136
:1012E8007EF0BBC17FF0BCC180F0BDC181F00AECCB
:1012F80011F07EC09BF07FC09CF080C09DF081C043
:101308009EF0EFEC18F00001D8A01FD0BAD7BAC1F0
:101318007EF0BBC17FF0BCC180F0BDC181F0000E82
:10132800826F000E836F200E846F410E856F3BEC39
:1013380014F07EC0BAF17FC0BBF180C0BCF181C09F
:10134800BDF10101B607D8A0B707B2C197F0B3C184
:1013580098F0B4C199F0B5C19AF0BAC19BF0BBC17D
:101368009CF0BCC19DF0BDC19EF0EFEC18F00001EF
:10137800D8A0CDD7B1C076F0776BBAEC1EF00001DB
:1013880076510101A76FA7C1A4F1670EA719D8A4C8
:1013980019D043504410D8A404D0000E446E010E56
:1013A800436E44BE05D0445008E14304D8B005D08C
:1013B800000EA36F060EA26F08D043C0A2F144C06E
:1013C800A3F103D044AEF9D7F3D7670EA719D8A471
:1013D80028D0B7AF06D0FC0EB65DFF0EB759D8A01F
:1013E8001DD0FF0E0001B26FFF0EB36FA2C1B4F0A3
:1013F800A3C1B5F0B251B427B351B5230101B65119
:101408000001B45DB551800AB66F0101B751800A79
:101418000001B659D8A002D0660E01D0650E0101B0
:10142800A46FA2C19AF1A3C19BF1670EA719D8A412
:1014380005D0660EA419D8B4B7AF02D09A4B9B2B2F
:10144800660EA419D8A416D0B7AF0CD0000EBA6F88
:10145800000EBB6F800EBC6F3F0EBD6F000EB76FE6
:10146800000EB66F670EA719D8B404D0B6519A27E4
:10147800B7519B23000EB16F000EB06FB2C1A8F137
:10148800B3C1A9F1B4C1AAF1B5C1ABF1BAC186F132
:10149800BBC187F1BCC188F1BDC189F17CD0A8C1AD
:1014A8007EF0A9C17FF0AAC180F0ABC181F0BAC1BA
:1014B80082F0BBC183F0BCC184F0BDC185F03BECB8
:1014C80014F07EC097F07FC098F080C099F081C07A
:1014D8009AF0C4EC16F097C0ACF198C0ADF199C081
:1014E800AEF19AC0AFF1ACC170F0ADC171F0AEC150
:1014F80072F0AFC173F01EEC1AF070C09EF171C0AB
:101508009FF1A8C197F0A9C198F0AAC199F0ABC101
:101518009AF0BAC182F0BBC183F0BCC184F0BDC1EE
:1015280085F0ACC17EF0ADC17FF0AEC180F0AFC137
:1015380081F00AEC11F07EC09BF07FC09CF080C067
:101548009DF081C09EF005EC1FF097C0A8F198C0EF
:10155800A9F199C0AAF19AC0ABF1BAC17EF0BBC19A
:101568007FF0BCC180F0BDC181F0000E0001826F28
:10157800000E836F200E846F410E856F3BEC14F0D4
:101588007EC0BAF17FC0BBF180C0BCF181C0BDF1A3
:101598000101B04BB12B9A51B05DB151800A0001E5
:1015A800B26F01019B51800A0001B259D8A077D7C8
:1015B800BAC17EF0BBC17FF0BCC180F0BDC181F073
:1015C800000E826F000E836FA00E846F400E856F31
:1015D8000AEC11F07EC0ACF17FC0ADF180C0AEF175
:1015E80081C0AFF1A8C197F0A9C198F0AAC199F03C
:1015F800ABC19AF0ACC19BF0ADC19CF0AEC19DF0FF
:10160800AFC19EF0EFEC18F00001D8B003D0000E87
:10161800010119D0A8C170F0A9C171F0AAC172F076
:10162800ABC173F0ACC174F0ADC175F0AEC176F06A
:10163800AFC177F06DEC1CF00001D8A00BD0010110
:101648009EB108D0000EAC6F000EAD6F000EAE6FED
:10165800000EAF6FB2C170F0B3C171F0B4C172F0D7
:10166800B5C173F0ACC174F0ADC175F0AEC176F020
:10167800AFC177F0B4EC12F070C0A8F171C0A9F155
:1016880072C0AAF173C0ABF186C1BAF187C1BBF1D0
:1016980088C1BCF189C1BDF1650E0101A419D8B496
:1016A80005D0B6C19CF1B7C19DF104D0000E9D6F65
:1016B800000E9C6F000E996F000E986F000E976FCA
:1016C800000E966F000EB16F000EB06FC9D0A8C1A2
:1016D8007EF0A9C17FF0AAC180F0ABC181F0BAC188
:1016E80082F0BBC183F0BCC184F0BDC185F03BEC86
:1016F80014F07EC097F07FC098F080C099F081C048
:101708009AF0C4EC16F097C0ACF198C0ADF199C04E
:10171800AEF19AC0AFF1ACC170F0ADC171F0AEC11D
:1017280072F0AFC173F01EEC1AF070C09EF171C078
:101738009FF10001E3B90DD001019E519F11D8A47A
:1017480008D0670EA719D8B49DAF03D0964B972B36
:101758003AD0010198519911D8B49DAF22D0160EF4
:10176800B825D96E010EB921DA6E2E0EDF6EB84B90
:10177800B92BA507D8A0A607000E996F010E986F80
:1017880010D0160EB825D96E010EB921DA6E300EBA
:10179800DF6EB84BB92BA507D8A0A6079607D8A027
:1017A800970796519711D8A4ECD7160EB825D96E7D
:1017B800010EB921DA6E9E51300FDF6EB84BB92B8E
:1017C800A507D8A0A607A8C197F0A9C198F0AAC1F3
:1017D80099F0ABC19AF0BAC182F0BBC183F0BCC129
:1017E80084F0BDC185F0ACC17EF0ADC17FF0AEC163
:1017F80080F0AFC181F00AEC11F07EC09BF07FC091
:101808009CF080C09DF081C09EF005EC1FF097C051
:10181800A8F198C0A9F199C0AAF19AC0ABF1BAC1D0
:101828007EF0BBC17FF0BCC180F0BDC181F0000E6D
:101838000001826F000E836F200E846F410E856F4A
:101848003BEC14F07EC0BAF17FC0BBF180C0BCF1A4
:1018580081C0BDF101019C07D8A09D07B04BB12BF9
:101868009A51B05DB151800A0001B26F01019B51DC
:10187800800A0001B259D8B009D00101B9BF27D7F1
:10188800B95104E14B0EB85DD8A021D70101985198
:101898009911D8A40ED00001E3A90BD0160E0101AE
:1018A800B825D96E010EB921DA6E2E0EDF6EB84B4F
:1018B800B92B160E0101B825D96E010EB921DA6EC1
:1018C800000EDF6E650EA419D8A459D4000EB16FAE
:1018D8004F0EB06F160EB025D96E010EB121DA6E1B
:1018E800000EDF6E000EA16F000EA06FB7AF08D01C
:1018F800000EA16F010EA06FB66DB71FD8B0B72B41
:10190800000EA36F020EA26F2DD0B007D8A0B107AA
:10191800160EB025D96E010EB121DA6EB6C170F07F
:10192800B7C171F0000E0001736F0A0E726F38ECC8
:101938001DF000017051300FDF6EB6C170F0B7C1F5
:1019480071F0000E736F0A0E726FB3EC1CF070C06A
:10195800B6F171C0B7F10101A207D8A0A307A50786
:10196800D8A0A607B651B711D8A4CFD7A3BF05D022
:10197800A351CBE1A205D8B0C8D7B007D8A0B1070A
:10198800A051A111D8A404D0000E916F2B0E03D042
:10199800000E916F2D0E906F160EB025D96E010EA8
:1019A800B121DA6E90C1DFFFA507D8A0A607B0075E
:1019B800D8A0B107BF0E0001B26FFF0EB36FB151CF
:1019C800B46FB56BB251B427B351B523B55106E125
:1019D8001A0EB45DD8B002D0010E01D0000E01017C
:1019E800946F956B94519511D8A404D0000E936F01
:1019F800650E03D0000E936F450E926F160EB0253C
:101A0800D96E010EB121DA6E92C1DFFFA507D8A009
:101A1800A607160EB8250001706F010E0101B92145
:101A28000001716F160E0101B0250001726F010EE1
:101A38000101B1210001736F8FEC1EF0C3EF08F0B4
:101A480083EC1BF014C112F115C113F1000E020151
:101A58001B6F000E1A6F7A0E1A25D96E010E1B2104
:101A6800DA6E000EDF6E1A4B1B2B1B5104E10A0EB7
:101A78001A5DD8A0F0D7010EC26E000E196F000EC5
:101A8800186F000E136F000E126FC282C2B2FED71B
:101A98008CAA02D0010E01D0000EFF0A0001DF6FF0
:101AA800DF3BDF478C50DF19DF0BDF198C6E9E9C04
:101AB800020118051911D8A405D0000E196F000EDF
:101AC800186FA1D0C3CF84F1C4CF85F16F0E000188
:101AD800826F120E836F830E846F3A0E856F84C1F6
:101AE80070F085C171F0000E71BFFF0E726F736FD9
:101AF800010E4DEC18F070C07EF071C07FF072C01E
:101B080080F073C081F00AEC11F07EC00CF27FC047
:101B18000DF280C00EF281C00FF20CC27EF00DC231
:101B28007FF00EC280F00FC281F0CE0E0001826FEE
:101B3800190E836F510E846F3F0E856F0AEC11F0FA
:101B48007EC00AF17FC00BF180C00CF181C00DF19D
:101B5800700E0101BE6F010EBF6F3A0EC06F100EFE
:101B6800C16F0AC1C2F10BC1C3F10CC1C4F10DC1EF
:101B7800C5F137EC1EF0000E0001706F020E716F98
:101B8800700E726F010E736F8FEC1EF0000E020163
:101B98001F6F040E1E6FFC0E0001DF6FFF0EE06F5B
:101BA8001EC2E1F01FC2E2F0DF51E127E051E2235B
:101BB800000EE125D96E020EE221DA6E700E0201E6
:101BC8001E25E16E010E1F21E26EDFCFE7FF1E4BDF
:101BD8001F2B1F5104E10B0E1E5DD8A0DCD7C00ED1
:101BE8000101706F500E716F540E726F3D0E736F5E
:101BF800560E786F000E796F700E00017A6F010E25
:101C08007B6F49EC20F00201124B132B13BF3DD719
:101C1800135104E1050E125DD8A037D70D0EC26E20
:101C2800000E196F000E186F000E156F000E146F5E
:101C3800C282C2B2FED78CAA02D0010E01D0000E19
:101C4800FF0A0001DF6FDF3BDF478C50DF19DF0B36
:101C5800DF198C6E9E9C020118051911D8A405D0B5
:101C6800000E196F000E186F85D0C3CF84F1C4CF52
:101C780085F184C170F085C171F00001000E71BF5B
:101C8800FF0E726F736F010E4DEC18F070C07EF08E
:101C980071C07FF072C080F073C081F0000E000147
:101CA800826F000E836F500E846F410E856F3BEC80
:101CB80014F07EC00EF17FC00FF180C010F181C01A
:101CC80011F1660E0101BE6F010EBF6F350EC06FB8
:101CD800100EC16F0EC1C2F10FC1C3F110C1C4F122
:101CE80011C1C5F137EC1EF0000E0001706F020E35
:101CF800716F660E726F010E736F8FEC1EF0000E1F
:101D08000201216F030E206FFD0E0001DF6FFF0E31
:101D1800E06F20C2E1F021C2E2F0DF51E127E0519B
:101D2800E223000EE125D96E020EE221DA6E660E7C
:101D380002012025E16E010E2121E26EDFCFE7FFCF
:101D4800204B212B215104E10B0E205DD8A0DCD7BC
:101D5800800E0101666F540E676F3D0E686F430E6B
:101D68006D6F000E6E6F660E00017A6F010E7B6F4D
:101D780049EC20F00201144B152B15BF59D715510A
:101D880004E1050E145DD8A053D7010114511219AE
:101D980004E115511319D8B455D6000E0201116F7C
:101DA800000E106F12C116F213C117F213D0000EF5
:101DB80002011625D96E010E1721DA6E7A0E10254A
:101DC800E16E010E1121E26EDFCFE7FF104B112B00
:101DD800164B172B16510101145D02011751010111
:101DE8001559D8B0E4D7000E156F000E146F000E09
:101DF80002011D6F000E1C6F1D510FE10A0E1C5DC4
:101E0800D8B00BD0000E1C25D96E010E1D21DA6E3C
:101E1800000EDF6E1C4B1D2BEFD77A0E0001866F6C
:101E2800010E876F63EC1EF00DD6B9C0D9FFBAC09A
:101E3800DAFFDECFF6FFDDCFF7FF000EF86E080001
:101E4800F550250AD8A4C5D1B9C0D9FFBAC0DAFF60
:101E5800DE2A000EDD22000E426E000E416E41C0E9
:101E6800E3F042C0E4F043684468B9C0D9FFBAC09F
:101E7800DAFFDECFF6FFDDCFF7FF000EF86E0800C1
:101E8800F5502E0AD8A472D0000E446E000E436E90
:101E9800B9C0D9FFBAC0DAFFDE2A000EDD22B9C008
:101EA800D9FFBAC0DAFFDECFF6FFDDCFF7FF000EAD
:101EB800F86E0800F5502A0AD8A41CD0B9C0D9FF7A
:101EC800BAC0DAFFDE2A000EDD22BBC0D9FFBCC0D3
:101ED800DAFFDFCFBDF0020EDE26DFCFBEF0000E48
:101EE800DD22BDC0D9FFBEC0DAFFDECF43F0DDCFB3
:101EF80044F03CD0B9C0D9FFBAC0DAFFDECF77F0E2
:101F0800DDCF78F0A1EC17F077C043F078C044F04B
:101F180007D0B9C0D9FFBAC0DAFFDE2A000EDD2229
:101F2800D00E0001BD6FFF0EBE6FB9C0D9FFBAC099
:101F3800DAFFDECFF6FFDDCFF7FF000EF86E080000
:101F4800F550BF6FC06BBD51BF27BE51C023C051F4
:101F580006E10A0EBF5DD8B002D0010E01D0000E16
:101F6800C16FC26BC151C211D8A4D3D7B9C0D9FFB0
:101F7800BAC0DAFFDECFF6FFDDCFF7FF000EF86E4E
:101F88000800F5500001766F776BBAEC1EF000017F
:101F98007651C96FC951D8B439D0B9C0D9FFBAC0C0
:101FA800DAFFDECFBDF0DDCFBEF0010EBD27000E9B
:101FB800BE23BDC0F6FFBEC0F7FF000EF86E0800D6
:101FC800F550766F776BBAEC1EF000017651CA6F48
:101FD800CA51D8B41BD0B9C0D9FFBAC0DAFFDECF16
:101FE800BDF0DDCFBEF0020EBD27000EBE23BDC082
:101FF800F6FFBEC0F7FF000EF86E0800F550766FCA
:10200800776BBAEC1EF000017651CB6F660EC919DA
:10201800D8A441D0B9C0D9FFBAC0DAFFDECFF6FFE5
:10202800DDCFF7FF000EF86E0800F5CFCCF0B9C091
:10203800D9FFBAC0DAFFDE2A000EDD22BBC0D9FF05
:10204800BCC0DAFFDFCFBDF0040EDE26DFCFBEF066
:10205800000EDD22BDC0D9FFBEC0DAFFDECFC5F05D
:10206800DECFC6F0DECFC7F0DECFC8F0B7C0ABF02A
:10207800B8C0ACF0C5C0ADF0C6C0AEF0C7C0AFF0D8
:10208800C8C0B0F0CCC0B1F02CEC08F0ABC0B7F0D1
:10209800ACC0B8F01200C90E706F000E716F530E0D
:1020A800726F100E736F000E756F020E746FDAEC9C
:1020B8001AF0000170517111D8A459D0B9C0D9FFD4
:1020C800BAC0DAFFDECFBDF0DDCFBEF0010EBD270E
:1020D800000EBE23BDC0F6FFBEC0F7FF000EF86EAF
:1020E8000800F5CFCCF0BF0EBD6FFF0EBE6FB9C0B4
:1020F800D9FFBAC0DAFFDECFF6FFDDCFF7FF000E5B
:10210800F86E0800F550BF6FC06BBD51BF27BE51B8
:10211800C023C05106E11A0EBF5DD8B002D0010E2F
:1021280001D0000EC36FC46BC351C411BBC0D9FF2B
:10213800BCC0DAFFDFCFBDF0040EDE26DFCFBEF075
:10214800000EDD22BDC0D9FFBEC0DAFFDECFC5F06C
:10215800DECFC6F0DECFC7F0DECFC8F0020EB9C0C2
:10216800D9FFBAC0DAFFDE26000EDD227FD7B9C05C
:10217800D9FFBAC0DAFFDECFF6FFDDCFF7FF000EDA
:10218800F86E0800F550250AD8A417D0B9C0D9FFB1
:10219800BAC0DAFFDE2A000EDD22000E716F250EAE
:1021A800706FB7C072F0B8C073F032EC1BF0000E5D
:1021B8000001B86F010EB76F1200B9C0D9FFBAC0DD
:1021C800DAFFDE2A000EDD22000EB86F000EB76FB0
:1021D8001200B9C0D9FFBAC0DAFFDECFF6FFDDCFF3
:1021E800F7FF000EF86E0800F5500001706F716B74
:1021F800B7C072F0B8C073F032EC1BF0B9C0D9FFA9
:10220800BAC0DAFFDE2A000EDD22D1D700018151E3
:10221800800B8A6F81518125906F80BF908190518A
:10222800D8B40DD09029D8A408D0000E7E6F000E27
:102238007F6F000E806F000E816F808F08D0000EB8
:102248007E6F000E7F6F000E806F000E816F8551CC
:10225800800B8A1B855185258B6F84BF8B818B51A1
:10226800D8B40DD08B29D8A408D0000E826F000EE8
:10227800836F000E846F000E856F848F08D0000E68
:10228800826F000E836F000E846F000E856F8B5176
:10229800D8B403D09051D8A409D0000E7E6F000E98
:1022A8007F6F000E806F000E816F120084517E03D5
:1022B800F3CF95F0F4CF96F095518C6F8D6B8E6BB4
:1022C8008F6B9651916F926B936B946B83517F03D5
:1022D800F3CF95F0F4CF96F095518C27000E8D230F
:1022E8008E238F2396519127000E922393239423B4
:1022F80082518003F3CF95F0F4CF96F095518C2757
:10230800000E8D238E238F2396519127000E922342
:10231800932394238EC08FF08DC08EF08CC08DF0E7
:102328008C6B82517F03F3CF95F0F4CF96F09551E3
:102338008C2796518D23000E8E23000E8F238351F8
:102348007E03F3CF95F0F4CF96F095518C279651F4
:102358008D23000E8E23000E8F238EC08FF08DC02C
:102368008EF08CC08DF08C6B82517E03F3CF95F08C
:10237800F4CF96F095518C2796518D23000E8E231D
:10238800000E8F2384517F03F3CF95F0F4CF96F09E
:102398009551912796519223000E9323000E942372
:1023A80083518003F3CF95F0F4CF96F095519127A0
:1023B80096519223000E9323000E94238451800398
:1023C800F3CF95F0F4CF96F09551866F9651876FBD
:1023D800886B896B88C089F087C088F086C087F0D1
:1023E800866B86519127875192238851932389516F
:1023F80094238CC086F08DC087F08EC088F08FC083
:1024080089F0190E05D0D8908933883387338633FD
:10241800E82EF9D786519127875192238851932323
:10242800895194238EC08FF08DC08EF08CC08DF0B2
:102438008C6B8B5190C086F0876B8627000E8723A4
:10244800820E8625956FFF0E8721966F0FD0D89044
:1024580091379237933794378FBF9181D8908C37C3
:102468008D378E378F379507D8A0960793AFEFD75C
:10247800000E8B6F8FAF17D0FF0E8C15866FFF0E77
:102488008D15876FFF0E8E15886F7F0E8F15896FDC
:102498008651871188118911D8B403D0010E8B6F2A
:1024A80002D091B1FBD78B51D8B41FD0010E912720
:1024B800000E92239323942394A117D091C086F001
:1024C80092C087F093C088F094C089F08935893329
:1024D80088338733863386C091F087C092F088C0EE
:1024E80093F089C094F0954B962B96BF0DD09651DA
:1024F80003E19529D8A008D0000E916F000E926FC5
:10250800800E936F7F0E20D096BF05D096510EE1B6
:102518009505D8B00BD0000E916F000E926F000E8B
:10252800936F000E946F000E8A6F0FD095C090F0D5
:10253800FF0E9117FF0E92177F0E9317000E941738
:1025480090B1938FD8909031946F8A51941391C021
:102558007EF092C07FF093C080F094C081F01200AA
:1025680000017351800B7C6F735173257E6F72BFAE
:102578007E817E51D8B40DD07E29D8A408D0000E13
:10258800706F000E716F000E726F000E736F728F96
:1025980006D0000E706F000E716F000E726F000E85
:1025A800736F7751800B7D6F7C517D19D8A47C8D1A
:1025B800775177257D6F76BF7D817D51D8B40DD059
:1025C8007D29D8A408D0000E746F000E756F000E18
:1025D800766F000E776F768F06D0000E746F000E40
:1025E800756F000E766F000E776F7E517D5DD8B0E7
:1025F80022D07CAD02D0800E7C1B7EC07FF07DC0D7
:102608007EF07FC07DF070C07FF074C070F07FC036
:1026180074F071C07FF075C071F07FC075F072C042
:102628007FF076C072F07FC076F073C07FF077C01D
:1026380073F07FC077F0000E7F6F7E517DC078F019
:10264800796B785F000E795B79BF2CD0795104E102
:102658001A0E785DD8A026D07051711172117311BD
:10266800D8B402D0010E01D0000E7F6F000E706F3B
:10267800000E716F000E726F000E736F7DC07EF0DA
:1026880015D07FA105D0D8907F3101097F6F02D086
:10269800D8907F3370B17F8F733573337233713352
:1026A80070337E2B7D517E5DD8A0EBD77CBD28D0C2
:1026B8007E51D8A409D0000E706F000E716F000E05
:1026C800726F000E736F1200745170277551712369
:1026D800765172237751732373A171D07FA105D0EE
:1026E800D8907F3101097F6F02D0D8907F3370B1C5
:1026F8007F8F733573337233713370337E2B5FD0B2
:102708007451705D75517159765172597351800ABF
:10271800786F7751800A7859D8B025D07051745D98
:10272800786F71517559796F725176597A6F735103
:1027380077597B6FFF0E7825706FFF0E7921716FC7
:10274800FF0E7A21726FFF0E7B21736F800E7C1B48
:102758007F6D7F51D8A40FD0010E7027000E712312
:102768007223732308D07451705F7551715B765171
:10277800725B7751735B7051711172117311D8A428
:102788001CD07F51D8A419D0000E706F000E716F45
:10279800000E726F000E736F1200D8907037713789
:1027A800723773377FBF70817FA102D0D88001D084
:1027B800D8907F377E51D8A47E0772AFEED7000E2F
:1027C8007D6F7FAF0BD07FC078F07F0E7817D8B4BD
:1027D80003D0010E7D6F02D070B1FBD77D51D8B404
:1027E80020D0010E7027000E71237223732373A16A
:1027F80018D070C078F071C079F072C07AF073C0E8
:102808007BF07B357B337A337933783378C070F05B
:1028180079C071F07AC072F07BC073F07E29D8A4B9
:102828007E2B7E29D8B403D07E51D8A40DD0000EBB
:10283800706F000E716F000E726F000E736F7E5115
:10284800D8A402D0000E7C6F7EA102D0728F01D076
:10285800729FD8907E31736F7CBF738F70C070F099
:1028680071C071F072C072F073C073F01200000191
:102878008151800B8E6F81518125956F80BF958125
:102888009551D8B40DD09529D8A408D0000E7E6FE4
:10289800000E7F6F000E806F000E816F808F06D054
:1028A800000E7E6F000E7F6F000E806F000E816F2E
:1028B8008551800B8E1B85518525966F84BF968127
:1028C8009651D8B40DD09629D8A408D0000E826F9E
:1028D800000E836F000E846F000E856F848F06D004
:1028E800000E826F000E836F000E846F000E856FDE
:1028F8008251831184118511D8A417D0000E7E6FE0
:10290800000E7F6F000E806F000E816F800E8013A7
:102918007F0E81138E5181137EC07EF07FC07FF0C1
:1029280080C080F081C081F012009551D8A409D0F0
:10293800000E7E6F000E7F6F000E806F000E816F9D
:102948001200965195C086F0876B865F000E875BF4
:102958007F0E86258F6F000E8721906F7EC08AF0CC
:102968007FC08BF080C08CF081C08DF0000E7E6F30
:10297800000E7F6F000E806F000E816F000E916F4A
:10298800000E926F000E936F000E946F000E966FFC
:1029980028D09651D8B411D0D8908A378B378C3735
:1029A8008D37D8907E377F378037813794BF7E81C7
:1029B800D890913792379337943782518A5D8351F3
:1029C8008B5984518C5985518D59D8A009D0948D33
:1029D80082518A5F83518B5B84518C5B85518D5BFF
:1029E800962B190E9665D5D78A518B118C118D119E
:1029F800D8B411D091810FD0D8907E377F378037E7
:102A0800813794BF7E81D890913792379337943726
:102A18008F07D8A0900780AFEFD7000E966F94AFBE
:102A280017D0FF0E9115866FFF0E9215876FFF0E58
:102A38009315886F7F0E9415896F865187118811B9
:102A48008911D8B403D0010E966F02D07EB1FBD79E
:102A58009651D8B41FD0010E7E27000E7F23802305
:102A6800812381A117D07EC086F07FC087F080C007
:102A780088F081C089F08935893388338733863374
:102A880086C07EF087C07FF088C080F089C081F062
:102A98008F4B902B90BF10D0905103E18F29D8A075
:102AA8000BD0000E906F8F69000E7E6F000E7F6F47
:102AB800000E806F000E816F90BF05D0905111E11C
:102AC8008F05D8B00ED0000E906F000E8F6F000EDD
:102AD8007E6F000E7F6F000E806F000E816F000EFC
:102AE8008E6F8FC095F095A102D0808F01D0809F06
:102AF800D8909531816F0ED71B50800B286E1B50D4
:102B08001B242F6E1ABE2F802F50D8B40DD02F281B
:102B1800D8A408D0000E186E000E196E000E1A6E9A
:102B2800000E1B6E1A8E06D0000E186E000E196E5F
:102B3800000E1A6E000E1B6E1F50800B281A1F50B5
:102B48001F24306E1EBE30803050D8B40DD03028CF
:102B5800D8A408D0000E1C6E000E1D6E000E1E6E4E
:102B6800000E1F6E1E8E06D0000E1C6E000E1D6E0F
:102B7800000E1E6E000E1F6E1C501D101E101F1022
:102B8800D8A417D0000E186E000E196E000E1A6E1B
:102B9800000E1B6E800E1A127F0E1B1228501B127D
:102BA80018C018F019C019F01AC01AF01BC01BF091
:102BB80012002F50D8A409D0000E186E000E196EFE
:102BC800000E1A6E000E1B6E120030502FC020F03F
:102BD800216A205E000E215A7F0E2024296E000EE5
:102BE80021202A6E18C024F019C025F01AC026F03A
:102BF8001BC027F0000E186E000E196E000E1A6E1C
:102C0800000E1B6E000E2B6E000E2C6E000E2D6E2D
:102C1800000E2E6E000E306E28D03050D8B411D071
:102C2800D8902436253626362736D89018361936C1
:102C38001A361B362EBE1880D8902B362C362D36D9
:102C48002E361C50245C1D5025581E5026581F50E7
:102C58002758D8A009D02E8C1C50245E1D50255A08
:102C68001E50265A1F50275A302A190E3064D5D7BD
:102C78002450251026102710D8B411D02B800FD03F
:102C8800D890183619361A361B362EBE1880D890AA
:102C98002B362C362D362E362906D8A02A061AAE03
:102CA800EFD7000E306E2EAE17D0FF0E2B14206E0D
:102CB800FF0E2C14216EFF0E2D14226E7F0E2E1483
:102CC800236E2050211022102310D8B403D0010EF7
:102CD800306E02D018B0FBD73050D8B41FD0010ED8
:102CE8001826000E19221A221B221BA017D018C062
:102CF80020F019C021F01AC022F01BC023F02334A1
:102D0800233222322132203220C018F021C019F09B
:102D180022C01AF023C01BF0294A2A2A2ABE10D042
:102D28002A5003E12928D8A00BD0000E2A6E296862
:102D3800000E186E000E196E000E1A6E000E1B6E35
:102D48002ABE05D02A5011E12904D8B00ED0000EB1
:102D58002A6E000E296E000E186E000E196E000EF7
:102D68001A6E000E1B6E000E286E29C02FF02FA0C1
:102D780002D01A8E01D01A9ED8902F301B6E0ED713
:102D880037C0A7F038C0A8F039C0A9F03AC0AAF0F7
:102D980097C0A7F098C0A8F099C0A9F09AC0AAF067
:102DA800810E00019B6FFF0E9C6FA7C09DF0A8C00D
:102DB8009EF0A9C09FF0AAC0A0F0180E05D0D89028
:102DC800A0339F339E339D33E82EF9D79D519B2521
:102DD800A56F000E9C21A66FA6BF0FD0A65104E1D7
:102DE800170EA55DD8A009D097C097F098C098F0A5
:102DF80099C099F09AC09AF01200A6BF5FD0A5C0FA
:102E08009BF0FF0E9C6FFF0E9D6F7F0E9E6F000E56
:102E18009F6F9B6701D007D09F359F339E339D33AB
:102E28009C339B2FF6D79CC0A1F09DC0A2F09EC0FA
:102E3800A3F09FC0A4F00001A151A7159B6FA25158
:102E4800A8159C6FA351A9159D6FA451AA159E6F33
:102E58009B519C119D119E11D8B4C6D7A7C09BF059
:102E6800A8C09CF0A9C09DF0AAC09EF0200E05D075
:102E7800D8909E339D339C339B33E82EF9D79B51D2
:102E88009C119D119E11D8B408D0A151A727A25119
:102E9800A823A351A923A451AA23A11D9B6FA21D56
:102EA8009C6FA31D9D6FA41D9E6F9B51A7179C51DE
:102EB800A8179D51A9179E51AA1736D0A7C09BF0F5
:102EC800A8C09CF0A9C09DF0AAC09EF0200E05D015
:102ED800D8909E339D339C339B33E82EF9D79B5172
:102EE8009C119D119E11D8A408D0000EA76F000E4A
:102EF800A86F000EA96F000E16D0D890A7359B6F4B
:102F0800A8359C6FA9359D6FAA359E6F9B519C1162
:102F18009D119E11D8B408D0000EA76F000EA86F9F
:102F2800800EA96FBF0EAA6FA7C097F0A8C098F02F
:102F3800A9C099F0AAC09AF01200000E0001856F8E
:102F4800000E846F000E7E6F000E7D6F02D0774BEF
:102F5800782B010E836F77C0F6FF78C0F7FF000E5D
:102F6800F86E0800F550200AD8B41AD0F70E796F19
:102F7800FF0E7A6F77C0F6FF78C0F7FF000EF86E85
:102F88000800F5507B6F7C6B79517B277A517C2345
:102F98007C5104E1050E7B5DD8A002D0000E836F42
:102FA80083C07FF0806B7F518011D8B408D0CFD711
:102FB800000E7E6F010E7D6F774B782B33D077C074
:102FC800F6FF78C0F7FF000EF86E0800F550796F2D
:102FD8007A6B7A51000AD8A425D079512B0AD8B433
:102FE800EBD7060AD8B4E4D71DD084C070F085C0EA
:102FF80071F0000E736F0A0E726F35EC20F077C017
:10300800F6FF78C0F7FF000EF86E0800F5500001D3
:10301800705F000E715B300E7025846F000E712199
:10302800856FCAD7D00E796FFF0E7A6F77C0F6FF1B
:1030380078C0F7FF000EF86E0800F5507B6F7C6BC8
:1030480079517B277A517C237C5106E10A0E7B5DFE
:10305800D8B002D0010E01D0000E816F826B815171
:103068008211D8A4C2D77D517E11D8A40DD084C0B6
:1030780079F085C07AF0791F7A1F794B7A2B79C05D
:1030880077F07AC078F0120084C077F085C078F0C5
:1030980012000001786F00017851D8A473AF1AD0DC
:1030A80070C074F071C075F072C076F073C077F0BC
:1030B800741F751F761F771F742B000E75237623D8
:1030C800772374C07AF075C07BF076C07CF077C047
:1030D8007DF008D070C07AF071C07BF072C07CF0CF
:1030E80073C07DF07051711172117311D8A409D099
:1030F800000E706F000E716F000E726F000E736F0E
:103108001200960E796F06D0792BD8907D337C33D8
:103118007B337A33000E7A15746F000E7B15756F4A
:10312800000E7C15766FFE0E7D15776F7451751144
:1031380076117711D8B40DD0E7D7792B010E7A27FD
:10314800000E7B237C237D23D8907D337C337B3317
:103158007A33000E7A15746F000E7B15756F000EAA
:103168007C15766FFF0E7D15776F7451751176118A
:103178007711D8B407D0E1D77907D8907A377B3759
:103188007C377D377CBF03D0020E7961F5D779A1F2
:103198007C9FD890793379C074F0756B766B776BB8
:1031A80074C077F0766B756B746B74517A137551C4
:1031B8007B1376517C1377517D137851D8A473AF64
:1031C80001D07D8F7AC070F07BC071F07CC072F046
:1031D8007DC073F01200000E000197159F6F000E5E
:1031E8009815A06F800E9915A16F7F0E9A15A26F82
:1031F8009F51A011A111A211D8A408D0000E976F59
:10320800000E986F000E996F000E9A6F000E9B15B6
:103218009F6F000E9C15A06F800E9D15A16F7F0EED
:103228009E15A26F9F51A011A111A211D8A408D078
:10323800000E9B6F000E9C6F000E9D6F000E9E6F20
:103248009AAF09D0976D981FD8B0982B991FD8B00E
:10325800992B800E9A579EAF09D09B6D9C1FD8B0B2
:103268009C2B9D1FD8B09D2B800E9E57000E971B40
:10327800000E981B000E991B800E9A1B000E9B1BBC
:10328800000E9C1B000E9D1B800E9E1B9B51975D84
:103298009C5198599D5199599E519A59D8B002D02C
:1032A800D8901200D88012003BC07AF03CC07BF066
:1032B8003DC07CF03EC07DF070C07AF071C07BF0FC
:1032C80072C07CF073C07DF07AC074F07BC075F07A
:1032D8007CC076F07DC077F0180E06D00001D8903B
:1032E8007733763375337433E82EF8D77451786FA3
:1032F800796B78517911D8A419D0D8907A35746F30
:103308007B35756F7C35766F7D35776F74517511A8
:1033180076117711D8A405D0000E716F020E706F68
:103328001200000E716F030E706F12007829791168
:10333800D8A41CD07AC074F07BC075F07CC076F03D
:103348007DC077F0090ED8907437753776377737A0
:10335800E82EF9D77451751176117711D8A402D0D7
:10336800010E01D0000E706F716B1200000E716FAC
:10337800040E706F1200000E0001716FD00E000174
:10338800706FC90EE82EFED7702FFCD700D08A9830
:1033980040D0000E8A6E8A8A140E7125F66EF76A7E
:1033A800100EF722F86A000EF8220800F550F00B0C
:1033B800726F72390F0B726F725181108A6E8A9A0E
:1033C800340E0001706FF10EE82EFED7702FFCD777
:1033D80000D0000E8A6E8A8A140E00017125F66EDE
:1033E800F76A100EF722F86A000EF8220800F55066
:1033F8000F0B726F725181108A6E8A9A340E000117
:10340800706FF10EE82EFED7702FFCD700D00001A8
:10341800712B140E00017125F66EF76A100EF72253
:10342800F86A000EF8220800F5500009D8A4B1D7B0
:103438008A881200000172357335796F7951D8A4E2
:1034480009D0000E706F000E716F000E726F000EC3
:10345800736F120070C074F071C075F072C076F0AE
:1034680073C077F0200E05D0D89077337633753354
:103478007433E82EF9D77451786F728FFF0E701776
:10348800FF0E7117FF0E7217000E7317960E795FF5
:1034980079AF0DD07951800A970FD8A0D2D7D8909C
:1034A8007333723371337033793FF9D70DD01F0EF0
:1034B800796507D0C6D7D8907037713772377337A8
:1034C80079077951D8A4F7D77851D8B408D0731FA1
:1034D800721F711F706D000E71237223732370C0E9
:1034E80070F071C071F072C072F073C073F01200A6
:1034F80033343434366E3650D8A409D0000E316EC9
:10350800000E326E000E336E000E346E120031C0A3
:1035180060F032C061F033C062F034C063F0200E56
:1035280006D00001D8906333623361336033E82EEC
:10353800F8D76051356E338EFF0E3116FF0E3216F6
:10354800FF0E3316000E3416960E365E36AE0DD0CC
:103558003650800A970FD8A0D1D7D890343233325A
:1035680032323132363EF9D70DD01F0E366407D0CD
:10357800C5D7D890313632363336343636063650DB
:10358800D8A4F7D73550D8B408D0341E331E321E0D
:10359800316C000E32223322342231C031F032C075
:1035A80032F033C033F034C034F0120070C077F01A
:1035B80071C078F072C079F073C07AF000017407B6
:1035C800D8A0750774290FE17529D8A40CD0000E6E
:1035D800716F000E706F1200774B782B794B7A2B36
:1035E8007407D8A0750777C0D9FF78C0DAFFDF5015
:1035F800D8B420D079C0F6FF7AC0F7FF000EF86E75
:103608000800F5500009D8B415D074517511D8B414
:1036180011D077C0D9FF78C0DAFFDF50766F79C054
:10362800F6FF7AC0F7FF000EF86E0800F55076191D
:10363800D8B4D2D777C0D9FF78C0DAFFDF50766F19
:1036480079C0F6FF7AC0F7FF000EF86E0800F55053
:10365800765D706F716BD8A071071200000172510E
:103668007311D8B404D072517311D8A404D0705116
:103678006DEC20F0120020EE04F07251D92673513F
:10368800DA22DE50DE10D8B416D020EE04F07251E3
:10369800D9267351DA2210EE02F07251E1267351E5
:1036A800E222DE50E65CE650800A786FDE50800A3F
:1036B8007859D8B0120020EE02F07251D926735111
:1036C800DA22DECF74F0DDCF75F072C0D9FF73C097
:1036D800DAFFDECF76F0DDCF77F074517625D96E3C
:1036E80075517721DA6E70C0DFFF20EE02F072515B
:1036F800D9267351DA22DE2A000EDD2212000F0EBF
:10370800956E000E8C6E930E946E000E8B6E9768FD
:10371800928A929896909398939AC00E936E000E00
:103728008A6EBFEC19F0480ED56E000ED66E000EEC
:10373800D76E020ECD6EF00ECF6E600ECE6ED08EAE
:10374800F1949F909F8AF28A9D809D8AF28CF28ED6
:10375800D58ECD80AB8EAB880C0EAF6E000ED46EBE
:10376800000E656E000EAC6EAC8AAC82010E0F01C5
:10377800256F290E926E010EC26E000EC16E950E57
:10378800C06E9E9C9D9C200EC66E000EC76EC78E96
:10379800C79CC688C650F00B0109C66E120000010E
:1037A800E3A10AD082C079F083C07AF080C07BF0B0
:1037B80081C07CF0B1EC1FF0000185BF05D084C04A
:1037C80089F085C08AF004D0000E8A6F000E896FD8
:1037D800000E886F000E876F0DD0000E716F200EDF
:1037E800706F80C072F081C073F032EC1BF0000182
:1037F800874B882B8951875D8851800A866F8A514B
:10380800800A8659D8A0E9D7E3B10AD082C079F0F6
:1038180083C07AF080C07BF081C07CF0B1EC1FF0EF
:1038280082C070F083C071F029EC1FF0000189514B
:103838007025806F8A517121816F1200000E00017E
:10384800736F3DD08A9A8150C00B8A6E7351D8A489
:1038580002D08A9801D08A888A8A73517025D96ED5
:10386800000E7121DA6EDF50F00B726F72390F0B98
:10387800726F725181108A6E8A9A420EE82EFED7B4
:1038880000D08150C00B8A6E00017351D8A402D0B9
:103898008A9801D08A888A8A73517025D96E000E59
:1038A8007121DA6EDF500F0B726F725181108A6EC0
:1038B8008A9A420EE82EFED700D00001732B73516E
:1038C8007025D96E000E7121DA6EDF50D8B412005F
:1038D800B9D7000E00017015786F000E7115796F59
:1038E800800E72157A6F7F0E73157B6F7851791180
:1038F8007A117B11D8A408D0000E706F000E716F7A
:10390800000E726F000E736F000E7415786F000E44
:103918007515796F800E76157A6F7F0E77157B6F28
:10392800785179117A117B11D8A408D0000E746FE0
:10393800000E756F000E766F000E776F7451701958
:103948000AE17551711907E17651721904E177514D
:103958007319D8B402D0D8901200D8801200000E83
:103968000001756F73AF06D0726D731FD8B0732BDB
:10397800010E756F71AF06D0706D711FD8B0712BC5
:10398800010E751B000E776F000E766F7251731162
:10399800D8B41CD0010E746F04D0D8907237733726
:1039A800742B73AFFAD7D890763777377251705D2A
:1039B80073517159D8A005D07251705F7351715B02
:1039C8007681D89073337233742FEDD77551D8B48C
:1039D80004D0766D771FD8B0772B76C070F077C09B
:1039E80071F01200330E0001656F330E666F530ECF
:1039F800676F3A0E686F65C01CF066C01DF067C03F
:103A08001EF068C01FF00AC118F00BC119F00CC1F4
:103A18001AF00DC11BF080EC15F018C031F019C078
:103A280032F01AC033F01BC034F07CEC1AF031C00D
:103A38006BF032C06CF00001300E6C276C51696F6E
:103A48006BC06AF08D9069C0C9FFC7A0FED7C95086
:103A58006AC0C9FFC7A0FED7C9508D809E90F60ED8
:103A6800CF6E180ECE6E1200000E0001756F71AF8A
:103A780006D0706D711FD8B0712B010E756F73AFC2
:103A880004D0726D731FD8B0732B72517311D8B4F0
:103A980018D0010E746F04D0D89072377337742B16
:103AA80073AFFAD77251705D73517159D8A004D0B1
:103AB8007251705F7351715BD89073337233742F86
:103AC800F1D77551D8B404D0706D711FD8B0712B6F
:103AD80070C070F071C071F01200000E0001796FB3
:103AE800000E786F20D09EA8FED70001785174256B
:103AF800766F79517521776F76C0F6FF77C0F7FF3B
:103B0800000EF86E0F0EF76403D00800F55005D0CC
:103B1800F6CFE1FFF7CFE2FFE750AD6E00D000D05F
:103B28000001784B792B74C070F075C071F029ECE6
:103B38001FF000017051785D71517959D8B01200A9
:103B4800D2D7E1CF01F0E2CF02F0D9CF03F0DACF3C
:103B580004F021EEC6F010EE05F0110EDBCFE3FF06
:103B6800E806FCE2AECF17F0000E01011425D96E6D
:103B7800010E1521DA6E17C0DFFF155107E10B0E94
:103B8800145DD8B003D0144B152B04D0000E156F5C
:103B9800000E146F04C0DAFF03C0D9FF02C0E2FFB1
:103BA80001C0E1FF4792110004D0704B712B724B9A
:103BB800732B70C0D9FF71C0DAFFDF500001746F3A
:103BC80072C0F6FF73C0F7FF000EF86E0800F550DC
:103BD8007419D8A407D070C0D9FF71C0DAFFDF50BC
:103BE800D8A4E3D770C0D9FF71C0DAFFDF50746F73
:103BF80072C0F6FF73C0F7FF000EF86E0800F550AC
:103C0800745D706F716BD8A071071200CFC0D3F0CC
:103C1800D0C0D4F0000E406E000E3F6E14D0CDC060
:103C2800B7F0CEC0B8F0D30E0001B96F000EBA6F6E
:103C3800D1C0BBF0D2C0BCF019EC0FF00001B751F5
:103C48003F26B8514022D3C0F6FFD4C0F7FF000E7C
:103C5800F86E0800F5500009D8A4E1D73FC0CDF0B0
:103C680040C0CEF01200C20E0001D76F010ED86F0F
:103C7800BEC1D9F0BFC1DAF0000EDC6F000EDB6FF9
:103C8800000EDE6F000EDD6FD90ECD6F000ECE6F09
:103C9800C0C1CFF0C1C1D0F0D70ED16F000ED26F26
:103CA8000AEC1EF00001DB510101BE25D96E0001AE
:103CB800DC510101BF21DA6E000EDF6E120086C0F2
:103CC80070F087C071F0300E0001726F100E736FC4
:103CD800D8EC1DF0000170517111D8A403D04DEC3F
:103CE8001FF0120086C070F087C071F04F0E726F1F
:103CF800100E736FD8EC1DF0000170517111D8A42B
:103D080003D06FEC1FF012001B0E746F100E756F4E
:103D180071EC1DF0120072C076F073C077F070C0BD
:103D280078F071C079F000017651746F7751756F32
:103D3800764B772B74C0F6FF75C0F7FF000EF86E50
:103D480078C0D9FF79C0DAFF784B792B0F0EF7646A
:103D580003D00800F55005D0F6CFE1FFF7CFE2FF1A
:103D6800E750DF6EDF50D8B41200DDD7BF0E000178
:103D7800786FFF0E796F76C07AF077C07BF0785154
:103D88007A2779517B237B5106E11A0E7A5DD8B0E8
:103D980002D0010E01D0000E7C6F7D6B7C517D112D
:103DA800D8B406D0200E7611766F7751776F12004F
:103DB80076C076F077C077F01200B80EF66E400E37
:103DC800F76E000EF86E01EEC6F010EE22F0090054
:103DD800F5CFEEFFE550E150FAE101EE00F0860E76
:103DE800EE6AE806FDE10001E46BE36B00EE37F0F4
:103DF800100EEE6AE806FDE147904792000124EFB5
:103E08000DF0000E00019B1B000E9C1B000E9D1B5D
:103E1800800E9E1B97C070F098C071F099C072F028
:103E28009AC073F09BC074F09CC075F09DC076F08A
:103E38009EC077F0B4EC12F070C097F071C098F0A3
:103E480072C099F073C09AF0120070C072F071C01D
:103E580073F003D00001704B712B70C0F6FF71C076
:103E6800F7FF000EF86E0F0EF76403D00800F55048
:103E780005D0F6CFE1FFF7CFE2FFE7500009D8A45D
:103E8800E9D700017251705D706F73517159716F8C
:103E98001200000E0001856F000E846F690E8425E4
:103EA800D96E010E8521DA6E7A0E8425E16E000E38
:103EB8008521E26EDFCFE7FF844B852B855104E136
:103EC800090E845DD8A0EAD77A0E746F000E756F5C
:103ED80071EC1DF01200000E0001856F000E846F5A
:103EE800740E8425D96E010E8521DA6E7A0E84252A
:103EF800E16E000E8521E26EDFCFE7FF844B852B54
:103F0800855104E1090E845DD8A0EAD77A0E746F52
:103F1800000E756F71EC1DF01200010E0001766F36
:103F2800200E70197111D8B414D0F70E726FFF0EED
:103F3800736F70C074F071C075F07251742773514B
:103F48007523755104E1050E745DD8A002D0000EEA
:103F5800766F76C070F0716B1200000E00017F6FF3
:103F6800000E7E6F0CD07DC070F0716B7BC072F05C
:103F78007CC073F032EC1BF000017E4B7F2B7E512E
:103F88007925D96E7F517A21DA6EDF507D6F7D51A8
:103F9800D8B41200E8D7100E455C130E4658D8B0B6
:103FA80003D0454A462A11D08CA802D0010E01D070
:103FB800000EFF0A186E183A8C501818EF0B1818D4
:103FC8008C6E000E466E000E456EF2941200BF0E07
:103FD8000001726FFF0E736F70C074F071C075F0DE
:103FE8007251742773517523755106E11A0E745D69
:103FF800D8B002D0010E01D0000E706F716B1200A4
:10400800D00E0001726FFF0E736F70C074F071C034
:1040180075F07251742773517523755106E10A0EB4
:10402800745DD8B002D0010E01D0000E706F716BB4
:10403800120000017051711172117311D8B408D0B7
:10404800000E701B000E711B000E721B800E731B7E
:1040580070C070F071C071F072C072F073C073F00C
:104068001200000170517203F3CF74F0F4CF75F0B1
:1040780070517303F350752771517203F35075270C
:1040880074C070F075C071F012007C0E0001706F82
:10409800000E716F7AC072F07BC073F08FEC1EF067
:1040A8007C0E0001706F000E716F22EC1CF0120084
:1040B8008000000000000000000000000000000078
:1040C8000000800000000000000000000000000068
:0440D80000001200D2
:020000040020DA
:08000000FFFFFFFFFFFFFFFF00
:020000040030CA
:0E0000001D03727CF98B91FFFFC0FFE0FF40F3
:00000001FF
