:020000040000FA
:040000000EEF00F00F
:020004000000FA
:040008004BEF01F0C9
:0800180075EF01F002D896D843
:10002000FED7C00E276E500E286E570E296E3D0E5D
:100030002A6E310E2B6E2E0E2C6E300E2D6E300E63
:100040002E6E6D0E2F6E730E306E000E316EC00E62
:10005000936E080E956E000E946E000E8C6E000E60
:100060008B6E000E8A6E000EF26E080ED56E630E59
:10007000D76EC00ED66ED58E77D9CED9040EF76E58
:100080003A0EF66E96D900EE27F0AFD9946A8B6AD5
:100090000B0E956E000E8C6E000EF26E840ED56EF9
:1000A0000B0ED76EDC0ED66E57D9200E8C6E54D93F
:1000B000000E8C6E400E8C6E4FD9000E8C6E800E32
:1000C0008C6E4AD9000E8C6EE00E0B6E280E0C6EF4
:1000D000010E0D6EA00E0E6E0F0E0F6E000E106E46
:1000E000000E116ED40E126E300E136E000E146ED2
:1000F000350E156E0C0E166E280E176E000E186E4D
:10010000000E196E946A8B6A030ECD6E0A0EBB6EDA
:100110000F01000E2D6F080E4E6FD08E9F90A5928E
:10012000A594026A0DC003F013C004F0A384A38257
:100130009D80A494F28CF28ECF6ACE6A026A11C0BE
:100140004FFF12C050FF000E306E1200086A83503D
:10015000096E0A18030B43E00A3002E3E89201D06B
:10016000E8820918030B1EE108062E52300856E0FB
:100170002E50300853E02E060B5017240B6E0C50F7
:1001800018200C6E0D5019200D6E17500E5C0E6E5F
:1001900018500F580F6E19500E580E6E00EE27F0C3
:1001A00024D91DD0082A2B50320819E02E503908C6
:1001B00019E02E2A0E5017240E6E0F5018200F6EC5
:1001C00010501920106E17500B5C0B6E18500C5805
:1001D0000C6E19500B580B6E00EE27F006D909C0B3
:1001E0000AF012002D50390835E0300E2E6E2D2AFF
:1001F0000E5017240E6E0F5018200F6E105019203D
:10020000106E17500B5C0B6E18500C580C6E19507A
:100210000B580B6E00EE27F0E8D8E1D72D503008D0
:100220002DE0390E2E6E2D060B5017240B6E0C5040
:1002300018200C6E0D5019200D6E17500E5C0E6EAE
:1002400018500F580F6E19500E580E6E00EE27F012
:10025000CCD8C5D7320E2B6E300E2D6E300E2E6ED2
:1002600000EE27F0C2D8BBD7310E2B6E390E2D6EA3
:10027000390E2E6E00EE27F0B8D8B1D72B503108CA
:10028000AEE0310E2B6E390E2D6E390E2E6E00EE55
:1002900027F0ABD8A4D7A4A402D006D8FCD79EA040
:1002A00002D057D8F8D711009EA004D050BF02D07A
:1002B000022A9E900250045C16E183A807D011C068
:1002C00007F012C006F013C005F006D014C007F006
:1002D00015C006F016C005F08C7807504F27065061
:1002E000502305500422A4941200D8CF01F0006ED0
:1002F000A4A202D00DD8FCD79EA002D02AD8F8D74D
:10030000A4A402D0D1DFF4D7005001C0D8FF100060
:100310009EA004D0BDBE02D0022A9E900250035C73
:1003200016E182A407D00BC007F00CC006F00DC088
:1003300005F006D00EC007F00FC006F010C005F0A3
:100340008B740750BC260650BD2205500322A49290
:100350001200022A9E901200F2A4FED70B0ED76E56
:10036000DC0ED66EF29412000A0E1A6E55D81A06DA
:10037000FDE18A98040EF76E280EF66E08008A6A70
:100380008A8AF550F00BE83881108A6E8A9A44D830
:100390008A6A8A8AF5500F0B81108A6E8A9A3CD835
:1003A0000B00F552ECE11200410E1A6E1A06FEE146
:1003B00012008A980800F55201E10B00F00E8A162F
:1003C0008A8AF550F00BE83881108A6E8A9AF00E0E
:1003D0008A168A8AF5500F0B81108A6E8A9AE4DF9A
:1003E0008A880B00F552EAE112008A98F00E8A160C
:1003F0008A8AEF50F00BE83881108A6E8A9AF00EE4
:100400008A168A8AEF500F0B81108A6E8A9ACCDF87
:100410008A88EC50EBE11200F2A4FED7630ED76E8F
:10042000C00ED66EF2941200333228010C06000082
:1004300080425954453D20202000804153454E20A4
:1004400035303637202020008048656C6C6F000006
:08045000C0576F726C642100BB
:020000040030CA
:010000001DE2
:0100010003FB
:010002006A93
:010003007C80
:010005008B6F
:00000001FF
