:020000040000FA
:0400000018EF00F005
:0600080009824CEF00F03C
:100018000980E0CF08F0F2A403D04AEC00F0FBD747
:1000280008C0E0FF099010001AEF00F09C0EF66E71
:10003800000EF76E000EF86E0900F5CF05F0090006
:10004800F5CF06F00900F5CF07F0046A036A026AE3
:10005800016A09900992000147EF00F0000ED66E80
:10006800D6CFD5FFD5CF8BFF8BCF94FF94CF8CFF06
:100078008CCF95FF000ED76ED08EF194F28AF28C59
:10008800F28ED58E120032EC00F0FFD7F2941200F7
:07009800099211003401017F
:020000040020DA
:08000000FFFFFFFFFFFFFFFF00
:020000040030CA
:0E0000001D03727CF98B91FFFFC0FFE0FF40F3
:00000001FF
