:020000040000FA
:0600000000000EEF00F00D
:020006000000F8
:0400080004EF00F011
:080018000CEF00F004D8D7D86A
:10002000E7D8FBD8FCD7C00E176E500E186E570ECF
:10003000196E3D0E1A6E310E1B6E2E0E1C6E300E9A
:100040001D6E300E1E6E6D0E1F6E730E206E000E36
:10005000216E000E126E000E146E6B0E006E900E6E
:10006000016EF00E026E600E036E010E046E900EB5
:10007000056E030E066E200E076E000EF26E850EE4
:10008000D56E0B0ED76EDC0ED66EC00E936E080EBC
:10009000956E000E946E000E8C6E000E8B6E000E30
:1000A0008A6E8DD8200E8C6E8AD8000E8C6E400E13
:1000B0008C6E85D8000E8C6E800E8C6E80D8000EF3
:1000C0008C6E000EF26E080ED56E630ED76EC00EEB
:1000D000D66ED58E1CD884D8020EF76EEC0EF66E56
:1000E0003BD800EE17F054D8000EF26E830ED56E9A
:1000F0000B0ED76EDC0ED66E000E9E6E000EA16E3D
:10010000130ECD6E030EB16E030E7B6E12000A0E3F
:100110000A6E66D80A06FDE18A98020EF76EDA0EBC
:10012000F66E08008A6A8A8AF550F00BE83881106A
:100130008A6E8A9A55D88A6A8A8AF5500F0B81107E
:100140008A6E8A9A4DD80B00F552ECE11200410EEE
:100150000A6E0A06FEE112008A980800F55201E1D3
:100160000B00F00E8A168A8AF550F00BE8388110E1
:100170008A6E8A9AF00E8A168A8AF5500F0B8110C1
:100180008A6E8A9AE4DF8A880B00F552EAE112004F
:100190008A98F00E8A168A8AEF50F00BE8388110A0
:1001A0008A6E8A9AF00E8A168A8AEF500F0B811097
:1001B0008A6E8A9ACCDF8A88EC50EBE11200F2A4B6
:1001C000FED70B0ED76EDC0ED66EF2941200F2A4A0
:1001D00012008C780B0ED76EDC0ED66EF2941200E5
:1001E000F2A4FED7630ED76EC00ED66EF294120044
:1001F0009EA01200040E8B6E02C0B3FF03C0B2FFBC
:10020000A19202D89E901200A1A2FED7000E8B6E82
:1002100000C0CFFF03C0CEFF120083A609D012B6E4
:1002200007D0150E7D6EA00E7C6E08D8080E126EDB
:100230008350080B125CE8B605D81200BAA2FED7AC
:10024000BA9212008C7401500524016E00500420F3
:10025000006E0750035C036E02500654026E040EDB
:10026000146008D01D2A1D2A00EE17F091DF142A11
:10027000126A120014620BD01B2A300E1D6E300E53
:100280001D6E00EE17F084DF142A126A12006B0E46
:10029000006E900E016EF00E026E600E036E310E57
:1002A0001B6E00EE17F074DF146A126A1200020E61
:1002B000F76EEC0EF66E50DF00EE15F0E86A0C32C9
:1002C000E8363009ED6EE9500D08F8E100EE0DF06A
:1002D000C00E0D6E166A5CDF1200333228010C0668
:1002E000000080425954453D202020008041534564
:1002F0004E2035303637202020008048656C6C6FEA
:0A0300000000C0576F726C6421000A
:020000040030CA
:010000001DE2
:0100010003FB
:010002006A93
:010003007C80
:00000001FF
