:020000040000FA
:0600000000000EEF00F00D
:020006000000F8
:0400080004EF00F011
:080018000CEF00F002D82ED815
:10002000FED7000EF26E850ED56E0B0ED76EDC0E6F
:10003000D66E0B0E956E000E8C6E18D8200E8C6E40
:1000400015D8000E8C6E400E8C6E10D8000E8C6E83
:10005000800E8C6E0BD8000E8C6E000EF26E830E2E
:10006000D56E0B0ED76EDC0ED66E1200F2A4FED744
:100070000B0ED76EDC0ED66EF2941200F2A41200B4
:0E0080008C780B0ED76EDC0ED66EF29412004A
:020000040030CA
:010000001DE2
:0100010003FB
:010002006A93
:010003007C80
:00000001FF
