:020000040000FA
:040000003EEF00F0DF
:0600080023821CEF09F049
:100018002380D8CF15F0E8CF16F0E0CF17F0D9CF6E
:1000280018F0DACF19F0F6CF1AF0F7CF1BF0F8CFA7
:100038001CF0F5CF1DF0F2A424EF00F026EF00F03D
:100048002AEF00F0FDEC08F01FEF00F01DC0F5FFEF
:100058001CC0F8FF1BC0F7FF1AC0F6FF19C0DAFF73
:1000680018C0D9FF17C0E0FF16C0E8FF15C0D8FFB9
:08007800239010000BEF09F0CA
:10100000003332280C010600802D526F6C6C6F7615
:0510100065722C0000D8
:10101600000E046E54EF08F08A9A8150C00B8A6E57
:101026000450D8A419EF08F01BEF08F01EEF08F0E3
:101036008A981FEF08F08A888A8A04500124D96E9C
:10104600000E0220DA6EDF50F00B036E033A0F0E2D
:10105600031603508A128A9A420EE82EFED700D053
:101066008150C00B8A6E0450D8A43CEF08F03EEFC6
:1010760008F041EF08F08A9842EF08F08A888A8AD9
:1010860004500124D96E000E0220DA6EDF500F0BD9
:10109600036E03508A128A9A420EE82EFED700D0BB
:1010A600042A04500124D96E000E0220DA6EDF50A5
:1010B600D8A460EF08F062EF08F00FEF08F0120016
:1010C600000E206ED00E1E6ECA0EE82EFED71E2E05
:1010D600FCD78A98A4EF08F0000E8A6E8A8A010E61
:1010E6002024F66EF76A100EF7220800F550F00B72
:1010F6001F6E1F3A0F0E1F161F500F0B8A6E8A9A0D
:10110600340E1E6EF20EE82EFED71E2EFCD7000EF3
:101116008A6E8A8A010E2024F66EF76A100EF7226E
:101126000800F5CF1FF00F0E1F161F500F0B8A6E0B
:101136008A9A340E1E6EF20EE82EFED71E2EFCD7AD
:10114600202A010E2024F66EF76A100EF7220800F8
:10115600F5500009D8A4B2EF08F0B4EF08F06FEF2D
:1011660008F08A881200000E146E000E136E1350DB
:101176000524076E14500620086E07C0F6FF08C047
:10118600F7FF090E1324D96E000E1420DA6E08003C
:10119600F5CFDFFF134A142A14BEDBEF08F0145014
:1011A60009E10B0E135CD8A0DBEF08F0DDEF08F0C9
:1011B600BAEF08F0090E016E000E026E0BEC08F095
:1011C6001200000E956E000E8C6E000E946E000ED0
:1011D6008B6EC00E936E63EC08F0050ED56EDB0EBB
:1011E600D66E0B0ED76ED08EF194F28AF28CF28EFA
:1011F600D58E1200100E8C1ADB0ED66E0B0ED76E25
:10120600080E056E100E066EB6EC08F0F29412008B
:10121600226A216A23902392000EF86E100EF76E52
:10122600000116EF09F0E4EC08F018EF09F03EEFC4
:0612360000F023921100FC
:020000040020DA
:08000000FFFFFFFFFFFFFFFF00
:020000040030CA
:0E0000001D03727CF98B91FFFFC0FFE0FF40F3
:00000001FF
