:020000040000FA
:0600000000000EEF00F00D
:0400080004EF00F011
:080018000CEF00F003D829D819
:100020008C78FDD7020E026E050E076E020E096E69
:10003000000E066E0B0E956E000E9A6E000E8C6E04
:1000400018D8200E8C6E15D8000E8C6E400E8C6E5B
:1000500010D8000E8C6E800E8C6E0BD8000E8C6E3D
:10006000DEDF1200040E016E0106FEE10206FAE177
:100070001200040E036EF6DF12D805D80306FBE16A
:100080000906F7E1120083A604D006A60ED8080ED2
:10009000066E8350080B065CE8B60BD8120083503E
:1000A000E846E8460C0B916E1200DCDF0706FDE126
:0800B00012008C74066A1200B4
:020000040030CA
:010000001DE2
:0100010003FB
:010002006A93
:010003007C80
:01000400F902
:010005008B6F
:010006009168
:01000800FFF8
:01000900C036
:01000A00FFF6
:01000B00E014
:01000C00FFF4
:01000D0040B2
:00000001FF
