:020000040000FA
:040000000EEF00F00F
:020004000000FA
:040008003EEF00F0D7
:080018003FEF00F001D8FFD713
:10002000400E066E0D0E056E030E046E946A8B6A0A
:10003000030ECD6E080EBB6E0F01000E2D6FD08E1D
:100040009F90A592026A030E036EA3829D80F28C9C
:10005000F28E1200076A8350086E0918030B0BE03A
:10006000093002E3E89201D0E8820818030B02E1AC
:10007000070601D0072A08C009F012001100D8CFE6
:1000800001F0006EA4A202D009D8FCD79EA002D035
:1000900017D8F8D7005001C0D8FF10009EA004D098
:1000A000BDBE02D0022A9E900250035C07E1BB70E5
:1000B0000650BC260550BD2204500322A492120013
:0600C000022A9E901200CE
:020000040030CA
:010000001DE2
:0100010003FB
:010002006A93
:010003007C80
:010005008B6F
:00000001FF
