:020000040000FA
:0400000020EF00F0FD
:0600080006824BEF00F040
:100018000680D8CF01F0E8CF02F0E0CF03F0F2A4D9
:1000280003D039EC00F0FBD703C0E0FF02C0E8FFC3
:1000380001C0D8FF0690100041EF00F0000E956E49
:10004800000E8C6E000E946E000E8B6EC00E936EBA
:10005800050ED56E000ED66E000ED76ED08EF194BA
:10006800F28AF28CF28ED58E1200100E8C1ADB0EEC
:10007800D66E0B0ED76EF2941200056A046A0690CB
:100088000692000148EF00F022EC00F0FFD706923C
:02009800110055
:020000040020DA
:08000000FFFFFFFFFFFFFFFF00
:020000040030CA
:0E0000001D03727CF98B91FFFFC0FFE0FF40F3
:00000001FF
