:020000040000FA
:040000003EEF00F0DF
:060008004C823CEF1FF0EA
:100018004C80D8CF0EF0E8CF0FF0E0CF10F0D9CF5A
:1000280011F0DACF12F0E8CFEAF00001EB6BF2A49E
:1000380003D09DEC1EF0FBD79EAA04D0F5EC1BF074
:100048009E9AF5D79EA008D0B6EC1BF09E90F80EAD
:10005800CF6ECC0ECE6EEBD70001EA5112C0DAFF9C
:1000680011C0D9FF10C0E0FF0FC0E8FF0EC0D8FFD5
:080078004C90100032EF1BF068
:10100000008054455354494E4721003332280C0187
:10101000060020543D25302E3166432000205054D8
:101020003D25302E32665600434F4E545F4F4646A4
:1010300000434F4E545F4F4E0054454D5000494EB3
:1010400046004E414E00696E66006E616E00504F64
:1010500054006C660000000E0001936F000E926F4A
:101060006EC0A4F06FC0A5F070C0A6F071C0A7F06C
:10107000A7AF16D0000E936F010E926FA4C013F0AD
:10108000A5C014F0A6C015F0A7C016F0E6EC1EF03F
:1010900013C0A4F014C0A5F015C0A6F016C0A7F0A8
:1010A000000E0001AB6F000EAA6FDEC097F0DFC02C
:1010B00098F092519311D8A402D03CA413D092512D
:1010C0009311D8A404D0000E7D6F2B0E03D0000E18
:1010D0007D6F2D0E7C6F7CC004F1AA4BAB2B970764
:1010E000D8A09807A4C013F0A5C014F0A6C015F0AE
:1010F000A7C016F09BEC18F013041410D8A44CD021
:10110000BF0E0001736FFF0E746F7251756F766BB7
:101110007351752774517623765106E11A0E755D69
:10112000D8B002D0010E01D0000E7E6F7F6B7E51D1
:101130007F11D8B40DD0040EAA25136E010EAB2179
:10114000146E3E0E156E100E166ED1EC1DF00CD006
:10115000040EAA25136E010EAB21146E460E156EF9
:10116000100E166ED1EC1DF00001FD0E9727FF0E3C
:1011700098236CC023F06DC024F0040E256E010E80
:10118000266E97C027F098C028F05AEC1AF023C0BA
:101190006CF024C06DF01200A4C013F0A5C014F0D0
:1011A000A6C015F0A7C016F09BEC18F01350141051
:1011B000D8A435D0BF0E0001736FFF0E746F72514B
:1011C000756F766B7351752774517623765106E1EE
:1011D0001A0E755DD8B002D0010E01D0000E806FDE
:1011E000816B80518111D8B40DD0040EAA25136EE5
:1011F000010EAB21146E420E156E100E166ED1EC60
:101200001DF0B2D7040EAA25136E010EAB21146E89
:101210004A0E156E100E166ED1EC1DF0A5D7000EFD
:101220000001AC6F000EAD6F800EAE6F3F0EAF6F62
:10123000000EA96F000EA86FA4C013F0A5C014F093
:10124000A6C015F0A7C016F0000E176E000E186E9F
:10125000000E196E000E1A6EEDEC1AF0D8A01ED01A
:1012600078D0ACC021F0ADC022F0AEC023F0AFC04A
:1012700024F0000E256E000E266E200E276E410E05
:10128000286E1EEC0FF021C0ACF022C0ADF023C0E0
:10129000AEF024C0AFF00001A84BA92BA4C060F0B1
:1012A000A5C061F0A6C062F0A7C063F0000E256E75
:1012B000000E266E200E276E410E286EACC021F067
:1012C000ADC022F0AEC023F0AFC024F01EEC0FF092
:1012D00021C064F022C065F023C066F024C067F02E
:1012E00032EC18F00001D8A01FD0BBD7ACC013F06F
:1012F000ADC014F0AEC015F0AFC016F0000E176E02
:10130000000E186E200E196E410E1A6E4DEC12F082
:1013100013C0ACF014C0ADF015C0AEF016C0AFF005
:101320000001A807D8A0A907A4C060F0A5C061F07B
:10133000A6C062F0A7C063F0ACC064F0ADC065F0B9
:10134000AEC066F0AFC067F032EC18F00001D8A074
:10135000CDD772C019F01A6AFBEC1DF019500001CC
:10136000996F99C096F0670E9919D8A419D03A5080
:101370003B10D8A404D0000E3B6E010E3A6E3BBE6B
:1013800005D03B5008E13A04D8B005D0000E956F67
:10139000060E946F08D03AC094F03BC095F003D08D
:1013A0003BAEF9D7F3D7670E9919D8A422D0A9AFCD
:1013B00006D0FC0EA85DFF0EA959D8A018D0FF0ECC
:1013C000736FFF0E746F94C075F095C076F0735113
:1013D000752774517623A851755D7651800A776F11
:1013E000A951800A7759D8A002D0660E01D0650EA7
:1013F000966F94C08CF095C08DF0670E9919D8A4A3
:1014000005D0660E9619D8B4A9AF02D08C4B8D2B9F
:10141000660E9619D8A416D0A9AF0CD0000EAC6FEA
:10142000000EAD6F800EAE6F3F0EAF6F000EA96F56
:10143000000EA86F670E9919D8B404D0A8518C2754
:10144000A9518D23000EA36F000EA26FA4C09AF0C5
:10145000A5C09BF0A6C09CF0A7C09DF0ACC078F0E2
:10146000ADC079F0AEC07AF0AFC07BF07BD09AC04F
:1014700013F09BC014F09CC015F09DC016F0ACC0DA
:1014800017F0ADC018F0AEC019F0AFC01AF04DECB7
:1014900012F013C02CF014C02DF015C02EF016C0A1
:1014A0002FF091EC13F02CC09EF02DC09FF02EC0B9
:1014B000A0F02FC0A1F09EC013F09FC014F0A0C0F8
:1014C00015F0A1C016F001EC19F013C090F014C093
:1014D00091F09AC060F09BC061F09CC062F09DC02A
:1014E00063F0ACC025F0ADC026F0AEC027F0AFC0B1
:1014F00028F09EC021F09FC022F0A0C023F0A1C020
:1015000024F01EEC0FF021C064F022C065F023C06F
:1015100066F024C067F021EC1EF060C09AF061C054
:101520009BF062C09CF063C09DF0ACC013F0ADC0F6
:1015300014F0AEC015F0AFC016F0000E176E000E1E
:10154000186E200E196E410E1A6E4DEC12F013C07B
:10155000ACF014C0ADF015C0AEF016C0AFF0000195
:10156000A24BA32B8C51A25DA351800A736F8D51A6
:10157000800A7359D8A07BD7ACC021F0ADC022F04F
:10158000AEC023F0AFC024F0000E256E000E266E14
:10159000A00E276E400E286E1EEC0FF021C09EF0AC
:1015A00022C09FF023C0A0F024C0A1F09AC060F038
:1015B0009BC061F09CC062F09DC063F09EC064F06F
:1015C0009FC065F0A0C066F0A1C067F032EC18F0D3
:1015D0000001D8A017D09AC013F09BC014F09CC093
:1015E00015F09DC016F09EC017F09FC018F0A0C067
:1015F00019F0A1C01AF0EDEC1AF0D8A00BD0000140
:1016000090B108D0000E9E6F000E9F6F000EA06F6D
:10161000000EA16FA4C013F0A5C014F0A6C015F071
:10162000A7C016F09EC017F09FC018F0A0C019F018
:10163000A1C01AF0C7EC10F013C09AF014C09BF0D0
:1016400015C09CF016C09DF078C0ACF079C0ADF02C
:101650007AC0AEF07BC0AFF0650E00019619D8B429
:1016600005D0A8C08EF0A9C08FF004D0000E8F6FF7
:10167000000E8E6F000E8B6F000E8A6F000E896F4A
:10168000000E886F000EA36F000EA26FC7D09AC025
:1016900013F09BC014F09CC015F09DC016F0ACC0B8
:1016A00017F0ADC018F0AEC019F0AFC01AF04DEC95
:1016B00012F013C02CF014C02DF015C02EF016C07F
:1016C0002FF091EC13F02CC09EF02DC09FF02EC097
:1016D000A0F02FC0A1F09EC013F09FC014F0A0C0D6
:1016E00015F0A1C016F001EC19F013C090F014C071
:1016F00091F03CB80DD0000190519111D8A408D0C0
:10170000670E9919D8B48FAF03D0884B892B3AD084
:1017100000018A518B11D8B48FAF22D0040EAA25B4
:10172000D96E010EAB21DA6E2E0EDF6EAA4BAB2BFB
:101730009707D8A09807000E8B6F010E8A6F10D004
:10174000040EAA25D96E010EAB21DA6E300EDF6EC3
:10175000AA4BAB2B9707D8A098078807D8A0890772
:1017600088518911D8A4ECD7040EAA25D96E010E90
:10177000AB21DA6E9051300FDF6EAA4BAB2B97077F
:10178000D8A098079AC060F09BC061F09CC062F03E
:101790009DC063F0ACC025F0ADC026F0AEC027F010
:1017A000AFC028F09EC021F09FC022F0A0C023F05F
:1017B000A1C024F01EEC0FF021C064F022C065F03F
:1017C00023C066F024C067F021EC1EF060C09AF0E0
:1017D00061C09BF062C09CF063C09DF0ACC013F090
:1017E000ADC014F0AEC015F0AFC016F0000E176E0D
:1017F000000E186E200E196E410E1A6E4DEC12F08E
:1018000013C0ACF014C0ADF015C0AEF016C0AFF010
:1018100000018E07D8A08F07A24BA32B8C51A25D8D
:10182000A351800A736F8D51800A7359D8B008D0C4
:10183000ABBF2DD7AB5104E14B0EAA5DD8A027D783
:101840008A518B11D8B43CA80AD0040EAA25D96EAF
:10185000010EAB21DA6E2E0EDF6EAA4BAB2B040EFF
:10186000AA25D96E010EAB21DA6E000EDF6E650E71
:101870009619D8A47ED4000EA36F4F0EA26F040E4B
:10188000A225D96E010EA321DA6E000EDF6E000EC6
:10189000936F000E926FA9AF08D0000E936F010EE8
:1018A000926FA86DA91FD8B0A92B000E956F020EDC
:1018B000946F2BD0A207D8A0A307040EA225D96E3F
:1018C000010EA321DA6EA8C013F0A9C014F0000E17
:1018D000166E0A0E156EE0EC1CF01350300FDF6E22
:1018E000A8C013F0A9C014F0000E166E0A0E156EF3
:1018F00074EC1BF013C0A8F014C0A9F00001940709
:10190000D8A095079707D8A09807A851A911D8A4DF
:10191000D1D795BF05D09551CDE19405D8B0CAD7A0
:10192000A207D8A0A30792519311D8A404D0000E07
:10193000836F2B0E03D0000E836F2D0E826F040E6B
:10194000A225D96E010EA321DA6E82C0DFFF9707B0
:10195000D8A09807A207D8A0A307BF0E736FFF0EE9
:10196000746F7251756F766B73517527745176234E
:10197000765106E11A0E755DD8B002D0010E01D085
:10198000000E866F876B86518711D8A404D0000E95
:10199000856F650E03D0000E856F450E846F040EB3
:1019A000A225D96E010EA321DA6E84C0DFFF97074E
:1019B000D8A09807040EAA25136E010EAB21146E51
:1019C000040EA225156E010EA321166ED1EC1DF09A
:1019D000B9EF08F0B2C0D9FFB3C0DAFFDECFF6FF2F
:1019E000DDCFF7FF000EF86E0800F550250AD8A4E9
:1019F00009D2B2C0D9FFB3C0DAFFDE2A000EDD2261
:101A0000000E0001DF6F000EDE6FDEC03CF0DFC0B5
:101A10003DF03A683B68000EBB6F000E14D03C806E
:101A2000B2C0D9FFB3C0DAFFDE2A000EDD2230D00B
:101A30003C82F6D73C84F4D73C86F2D73C88F0D77A
:101A4000000EBB6F010EBA6F23D0B2C0D9FFB3C076
:101A5000DAFFDECFF6FFDDCFF7FF000EF86E0800ED
:101A6000F550B66FB76BB751000AD8A4E9D7B65195
:101A7000200AD8B4E1D7030AD8B4E0D7080AD8B40A
:101A8000D9D7060AD8B4CBD71D0AD8B4D1D7D8D75E
:101A9000BA51BB11D8B4D9D73CB03C92B2C0D9FF2F
:101AA000B3C0DAFFDECFF6FFDDCFF7FF000EF86E32
:101AB0000800F5502E0AD8A472D0000E3B6E000E1E
:101AC0003A6EB2C0D9FFB3C0DAFFDE2A000EDD22C3
:101AD000B2C0D9FFB3C0DAFFDECFF6FFDDCFF7FF2C
:101AE000000EF86E0800F5502A0AD8A41CD0B2C027
:101AF000D9FFB3C0DAFFDE2A000EDD22B4C0D9FF61
:101B0000B5C0DAFFDFCFB6F0020EDE26DFCFB7F0CA
:101B1000000EDD22B6C0D9FFB7C0DAFFDECF3AF043
:101B2000DDCF3BF03CD0B2C0D9FFB3C0DAFFDECF8F
:101B30001AF0DDCF1BF035EC15F01AC03AF01BC0DF
:101B40003BF007D0B2C0D9FFB3C0DAFFDE2A000EE7
:101B5000DD22D00E0001B66FFF0EB76FB2C0D9FF05
:101B6000B3C0DAFFDECFF6FFDDCFF7FF000EF86E71
:101B70000800F550B86FB96BB651B827B751B92303
:101B8000B95106E10A0EB85DD8B002D0010E01D0FD
:101B9000000EBC6FBD6BBC51BD11D8A4D3D7B2C071
:101BA000D9FFB3C0DAFFDECFF6FFDDCFF7FF000EBF
:101BB000F86E0800F550196E1A6AFBEC1DF019500A
:101BC0000001C46FC451D8B439D0B2C0D9FFB3C07A
:101BD000DAFFDECFB6F0DDCFB7F0010EB627000E8C
:101BE000B723B6C0F6FFB7C0F7FF000EF86E0800C7
:101BF000F550196E1A6AFBEC1DF019500001C56F03
:101C0000C551D8B41BD0B2C0D9FFB3C0DAFFDECF04
:101C1000B6F0DDCFB7F0020EB627000EB723B6C080
:101C2000F6FFB7C0F7FF000EF86E0800F550196E0A
:101C30001A6AFBEC1DF019500001C66F660EC4193C
:101C4000D8A441D0B2C0D9FFB3C0DAFFDECFF6FFCF
:101C5000DDCFF7FF000EF86E0800F5CFC7F0B2C079
:101C6000D9FFB3C0DAFFDE2A000EDD22B4C0D9FFEF
:101C7000B5C0DAFFDFCFB6F0040EDE26DFCFB7F057
:101C8000000EDD22B6C0D9FFB7C0DAFFDECFC0F04C
:101C9000DECFC1F0DECFC2F0DECFC3F0B0C06CF05B
:101CA000B1C06DF0C0C06EF0C1C06FF0C2C070F0C6
:101CB000C3C071F0C7C072F02BEC08F06CC0B0F07C
:101CC0006DC0B1F01200C40E136E000E146E520EF1
:101CD000156E100E166E000E186E020E176E5EEC6C
:101CE00019F013501410D8A45AD0B2C0D9FFB3C001
:101CF000DAFFDECFB6F0DDCFB7F0010E0001B62778
:101D0000000EB723B6C0F6FFB7C0F7FF000EF86E9F
:101D10000800F5CFC7F0BF0EB66FFF0EB76FB2C0A9
:101D2000D9FFB3C0DAFFDECFF6FFDDCFF7FF000E3D
:101D3000F86E0800F550B86FB96BB651B827B751B7
:101D4000B923B95106E11A0EB85DD8B002D0010E20
:101D500001D0000EBE6FBF6BBE51BF11B4C0D9FF22
:101D6000B5C0DAFFDFCFB6F0040EDE26DFCFB7F066
:101D7000000EDD22B6C0D9FFB7C0DAFFDECFC0F05B
:101D8000DECFC1F0DECFC2F0DECFC3F0020EB2C0B4
:101D9000D9FFB3C0DAFFDE26000EDD227FD7B2C046
:101DA000D9FFB3C0DAFFDECFF6FFDDCFF7FF000EBD
:101DB000F86E0800F550250AD8A417D0B2C0D9FF94
:101DC000B3C0DAFFDE2A000EDD22000E146E250EEF
:101DD000136EB0C015F0B1C016F00AEC1AF0000E88
:101DE0000001B16F010EB06F1200B2C0D9FFB3C0D5
:101DF000DAFFDE2A000EDD22000E0001B16F000EB8
:101E0000B06F1200B2C0D9FFB3C0DAFFDECFF6FF69
:101E1000DDCFF7FF000EF86E0800F550136E146A60
:101E2000B0C015F0B1C016F00AEC1AF0B2C0D9FF7C
:101E3000B3C0DAFFDE2A000EDD22D1D72450800B9A
:101E40002D6E24502424336E23BE33803350D8B4F7
:101E50000DD03328D8A408D0000E216E000E226EBB
:101E6000000E236E000E246E238E08D0000E216E0D
:101E7000000E226E000E236E000E246E2850800B82
:101E80002D1A285028242E6E27BE2E802E50D8B40E
:101E90000DD02E28D8A408D0000E256E000E266E78
:101EA000000E276E000E286E278E08D0000E256EBD
:101EB000000E266E000E276E000E286E2E50D8B42F
:101EC00003D03350D8A409D0000E216E000E226E2C
:101ED000000E236E000E246E120027502102F3CF55
:101EE00038F0F4CF39F038502F6E306A316A326AE8
:101EF0003950346E356A366A376A26502202F3CF7B
:101F000038F0F4CF39F038502F26000E302231222D
:101F1000322239503426000E3522362237222550FF
:101F20002302F3CF38F0F4CF39F038502F26000ECB
:101F300030223122322239503426000E3522362208
:101F4000372231C032F030C031F02FC030F02F6A6C
:101F500025502202F3CF38F0F4CF39F038502F2635
:101F600039503022000E3122000E3222265021023A
:101F7000F3CF38F0F4CF39F038502F2639503022D3
:101F8000000E3122000E322231C032F030C031F06A
:101F90002FC030F02F6A25502102F3CF38F0F4CF54
:101FA00039F038502F2639503022000E3122000EE1
:101FB000322227502202F3CF38F0F4CF39F03850D4
:101FC000342639503522000E3622000E3722265094
:101FD0002302F3CF38F0F4CF39F03850342639509B
:101FE0003522000E3622000E372227502302F3CF6F
:101FF00038F0F4CF39F03850296E39502A6E2B6AF8
:102000002C6A2BC02CF02AC02BF029C02AF0296A98
:10201000295034262A5035222B5036222C50372274
:102020002FC029F030C02AF031C02BF032C02CF084
:10203000190E05D0D8902C322B322A322932E82EB4
:10204000F9D7295034262A5035222B5036222C50CD
:10205000372231C032F030C031F02FC030F02F6A5B
:102060002E5033C029F02A6A2926000E2A22820E19
:102070002924386EFF0E2A20396E0FD0D8903436BE
:1020800035363636373632BE3480D8902F36303635
:10209000313632363806D8A0390636AEEFD7000EC4
:1020A0002E6E32AE17D0FF0E2F14296EFF0E301495
:1020B0002A6EFF0E31142B6E7F0E32142C6E2950B7
:1020C0002A102B102C10D8B403D0010E2E6E02D083
:1020D00034B0FBD72E50D8B41FD0010E3426000EDA
:1020E00035223622372237A017D034C029F035C028
:1020F0002AF036C02BF037C02CF02C342C322B3287
:102100002A32293229C034F02AC035F02BC036F0EB
:102110002CC037F0384A392A39BE0DD0395003E186
:102120003828D8A008D0000E346E000E356E800E10
:10213000366E7F0E20D039BE05D039500EE13804FE
:10214000D8B00BD0000E346E000E356E000E366E19
:10215000000E376E000E2D6E0FD038C033F0FF0E1C
:102160003416FF0E35167F0E3616000E371633B0B6
:10217000368ED8903330376E2D50371234C021F060
:1021800035C022F036C023F037C024F012001650BC
:10219000800B1F6E16501624216E15BE2180215013
:1021A000D8B40DD02128D8A408D0000E136E000E8C
:1021B000146E000E156E000E166E158E06D0000EF3
:1021C000136E000E146E000E156E000E166E1A5071
:1021D000800B206E1F502018D8A41F8C1A501A2470
:1021E000206E19BE20802050D8B40DD02028D8A44D
:1021F00008D0000E176E000E186E000E196E000E3D
:102200001A6E198E06D0000E176E000E186E000E94
:10221000196E000E1A6E2150205CD8B022D01FAC6F
:1022200002D0800E1F1A21C022F020C021F022C04F
:1022300020F013C022F017C013F022C017F014C012
:1022400022F018C014F022C018F015C022F019C0F6
:1022500015F022C019F016C022F01AC016F022C0E4
:102260001AF0000E226E215020C01BF01C6A1B5E6B
:10227000000E1C5A1CBE2CD01C5004E11A0E1B5C14
:10228000D8A026D01350141015101610D8B402D0B0
:10229000010E01D0000E226E000E136E000E146EA1
:1022A000000E156E000E166E20C021F015D022A073
:1022B00005D0D89022300109226E02D0D890223267
:1022C00013B0228E16341632153214321332212AEC
:1022D0002050215CD8A0EBD71FBC28D02150D8A417
:1022E00009D0000E136E000E146E000E156E000E57
:1022F000166E12001750132618501422195015226A
:102300001A50162216A071D022A005D0D8902230E3
:102310000109226E02D0D890223213B0228E1634D8
:102320001632153214321332212A5FD01750135C43
:1023300018501458195015581650800A1B6E1A5010
:10234000800A1B58D8B025D01350175C1B6E145050
:1023500018581C6E155019581D6E16501A581E6EBE
:10236000FF0E1B24136EFF0E1C20146EFF0E1D208B
:10237000156EFF0E1E20166E800E1F1A226C225044
:10238000D8A40FD0010E1326000E142215221622F7
:1023900008D01750135E1850145A1950155A1A5075
:1023A000165A1350141015101610D8A41CD0225011
:1023B000D8A419D0000E136E000E146E000E156E08
:1023C000000E166E1200D8901336143615361636D7
:1023D00022BE138022A002D0D88001D0D89022360D
:1023E0002150D8A4210615AEEED7000E206E22AEE5
:1023F0000BD022C01BF07F0E1B16D8B403D0010EE9
:10240000206E02D013B0FBD72050D8B420D0010EDC
:102410001326000E14221522162216A018D013C05F
:102420001BF014C01CF015C01DF016C01EF01E34A9
:102430001E321D321C321B321BC013F01CC014F0A4
:102440001DC015F01EC016F02128D8A4212A21286D
:10245000D8B403D02150D8A40DD0000E136E000EB6
:10246000146E000E156E000E166E2150D8A402D008
:10247000000E1F6E21A002D0158E01D0159ED8909F
:102480002130166E1FBE168E13C013F014C014F048
:1024900015C015F016C016F012001650800B236EF2
:1024A000165016242A6E15BE2A802A50D8B40DD094
:1024B0002A28D8A408D0000E136E000E146E000E49
:1024C000156E000E166E158E06D0000E136E000EE1
:1024D000146E000E156E000E166E1A50800B231A25
:1024E0001A501A242B6E19BE2B802B50D8B40DD045
:1024F0002B28D8A408D0000E176E000E186E000E00
:10250000196E000E1A6E198E06D0000E176E000E90
:10251000186E000E196E000E1A6E17501810191052
:102520001A10D8A417D0000E136E000E146E000EF1
:10253000156E000E166E800E15127F0E16122350A9
:10254000161213C013F014C014F015C015F016C005
:1025500016F012002A50D8A409D0000E136E000EF7
:10256000146E000E156E000E166E12002B502AC04F
:102570001BF01C6A1B5E000E1C5A7F0E1B24246E6F
:10258000000E1C20256E13C01FF014C020F015C0D3
:1025900021F016C022F0000E136E000E146E000E15
:1025A000156E000E166E000E266E000E276E000EC3
:1025B000286E000E296E000E2B6E28D02B50D8B43A
:1025C00011D0D8901F36203621362236D8901336B7
:1025D00014361536163629BE1380D890263627367F
:1025E0002836293617501F5C18502058195021588A
:1025F0001A502258D8A009D0298C17501F5E1850A5
:10260000205A1950215A1A50225A2B2A190E2B647B
:10261000D5D71F50201021102210D8B411D02680F9
:102620000FD0D890133614361536163629BE1380BF
:10263000D89026362736283629362406D8A02506EF
:1026400015AEEFD7000E2B6E29AE17D0FF0E261455
:102650001B6EFF0E27141C6EFF0E28141D6E7F0EBE
:1026600029141E6E1B501C101D101E10D8B403D050
:10267000010E2B6E02D013B0FBD72B50D8B41FD055
:10268000010E1326000E14221522162216A017D0B2
:1026900013C01BF014C01CF015C01DF016C01EF0B6
:1026A0001E341E321D321C321B321BC013F01CC0E4
:1026B00014F01DC015F01EC016F0244A252A25BEB0
:1026C00010D0255003E12428D8A00BD0000E256E91
:1026D0002468000E136E000E146E000E156E000EB0
:1026E000166E25BE05D0255011E12404D8B00ED0B9
:1026F000000E256E000E246E000E136E000E146E7A
:10270000000E156E000E166E000E236E24C02AF009
:102710002AA002D0158E01D0159ED8902A30166EB0
:102720000ED700C166F001C167F002C168F003C1B5
:1027300069F02CC066F02DC067F02EC068F02FC085
:1027400069F0810E306EFF0E316E66C032F067C0E8
:1027500033F068C034F069C035F0180E05D0D89059
:102760003532343233323232E82EF9D73250302417
:102770000001646F000E3120656F65BF0FD0655199
:1027800004E1170E645DD8A009D02CC02CF02DC038
:102790002DF02EC02EF02FC02FF0120065BF5FD09D
:1027A00064C030F0FF0E316EFF0E326E7F0E336E5E
:1027B000000E346E306601D007D0343434323332F8
:1027C00032323132302EF6D731C060F032C061F093
:1027D00033C062F034C063F0000160516615306EA2
:1027E00061516715316E62516815326E635169151A
:1027F000336E3050311032103310D8B4C6D766C0A3
:1028000030F067C031F068C032F069C033F0200E9C
:1028100005D0D8903332323231323032E82EF9D707
:102820003050311032103310D8B408D060516627C0
:10283000615167236251682363516923601D306EC3
:10284000611D316E621D326E631D336E305066172E
:1028500031506717325068173350691736D066C049
:1028600030F067C031F068C032F069C033F0200E3C
:1028700005D0D8903332323231323032E82EF9D7A7
:102880003050311032103310D8A408D0000E666FCB
:10289000000E676F000E686F000E16D0D890663578
:1028A000306E6735316E6835326E6935336E305053
:1028B000311032103310D8B408D0000E666F000EFD
:1028C000676F800E686FBF0E696F66C02CF067C0BF
:1028D0002DF068C02EF069C02FF01200540E136E58
:1028E000010E146E000E166E000E156E000E186EA0
:1028F000140E176E7FEC16F0680E136E010E146E38
:10290000390E156E100E166E000E186E040E176E30
:102910005EEC19F013501410D8A415D089C154F1ED
:102920008AC155F18BC156F18CC157F18DC158F157
:10293000000E0101596F000E5A6F000E5B6F000E02
:102940005C6F000E5D6F680E136E010E146E4E0EFE
:10295000156E100E166E000E186E030E176E5EECDE
:1029600019F013501410D8A415D080C154F181C1AE
:1029700055F182C156F183C157F184C158F1000E5F
:102980000101596F000E5A6F000E5B6F000E5C6FF5
:10299000000E5D6F000E3F6E000E3E6E680E136EF1
:1029A000010E146E310E156E100E166E000E186E9E
:1029B000070E176E5EEC19F013501410D8A405D052
:1029C000000E0001E36F010EE26F680E136E010E40
:1029D000146E280E156E100E166E000E186E080E70
:1029E000176E5EEC19F013501410D8A405D0000E29
:1029F0000001E36F000EE26F0001E005E111D8A4D1
:102A00002CD087C154F188C155F189C156F18AC1D2
:102A100057F18BC158F18CC159F18DC15AF13B0E60
:102A200001015B6F200E5C6F7DC15DF17EC15EF1C7
:102A30007FC15FF180C160F181C161F182C162F14A
:102A400083C163F184C164F10A0E656F000E666F85
:102A5000000E0001E16F000EE06F4AEC1DF0000E69
:102A60000001E56F000EE46F1200000E286E000EEC
:102A7000276E000E216E000E206E02D01A4A1B2A0D
:102A8000010E266E1AC0F6FF1BC0F7FF000EF86E8F
:102A90000800F550200AD8B41AD0F70E1C6EFF0EAD
:102AA0001D6E1AC0F6FF1BC0F7FF000EF86E08007F
:102AB000F5501E6E1F6A1C501E261D501F221F50EF
:102AC00004E1050E1E5CD8A002D0000E266E26C0C2
:102AD00022F0236A22502310D8B408D0CFD7000E9A
:102AE000216E010E206E1A4A1B2A32D01AC0F6FF40
:102AF0001BC0F7FF000EF86E0800F5501C6E1D6A33
:102B00001D50000AD8A424D01C502B0AD8B4EBD7EF
:102B1000060AD8B4E4D71CD027C013F028C014F09C
:102B2000000E166E0A0E156E12EC1FF01AC0F6FF9C
:102B30001BC0F7FF000EF86E0800F550135E000E84
:102B4000145A300E1324276E000E1420286ECBD793
:102B5000D00E1C6EFF0E1D6E1AC0F6FF1BC0F7FFD5
:102B6000000EF86E0800F5501E6E1F6A1C501E26DF
:102B70001D501F221F5006E10A0E1E5CD8B002D065
:102B8000010E01D0000E246E256A24502510D8A411
:102B9000C3D720502110D8A40DD027C01CF028C0C6
:102BA0001DF01C1E1D1E1C4A1D2A1CC01AF01DC033
:102BB0001BF0120027C01AF028C01BF012001B6E79
:102BC0001B50D8A416AE1AD013C017F014C018F0BA
:102BD00015C019F016C01AF0171E181E191E1A1E5D
:102BE000172A000E182219221A2217C01DF018C029
:102BF0001EF019C01FF01AC020F008D013C01DF03D
:102C000014C01EF015C01FF016C020F01350141091
:102C100015101610D8A409D0000E136E000E146EF5
:102C2000000E156E000E166E1200960E1C6E06D06B
:102C30001C2AD89020321F321E321D32000E1D1465
:102C4000176E000E1E14186E000E1F14196EFE0E65
:102C500020141A6E1750181019101A10D8B40DD06D
:102C6000E7D71C2A010E1D26000E1E221F2220223D
:102C7000D89020321F321E321D32000E1D14176EE6
:102C8000000E1E14186E000E1F14196EFF0E201475
:102C90001A6E1750181019101A10D8B407D0E1D7AF
:102CA0001C06D8901D361E361F3620361FBE03D098
:102CB000020E1C60F5D71CA01F9ED8901C321CC0B1
:102CC00017F0186A196A1A6A17C01AF0196A186A8E
:102CD000176A17501D1218501E1219501F121A5041
:102CE00020121B50D8A416AE01D0208E1DC013F0A8
:102CF0001EC014F01FC015F020C016F0120013C043
:102D00001DF014C01EF017501810D8B412001DC0CA
:102D1000D9FF1EC0DAFF15C0DFFF17501D24196E42
:102D200018501E201A6EFF0E1924D96EFF0E1A209D
:102D3000DA6E15C0DFFF185004E1030E175CD8A04F
:102D4000120020EE01F01D50D9261E50DA2215C0C7
:102D5000DFFF20EE02F01D50D9261E50DA2215C0EA
:102D6000DFFF17501D24196E18501E201A6EFE0E1C
:102D70001924D96EFF0E1A20DA6E15C0DFFF175026
:102D80001D24196E18501E201A6EFD0E1924D96EBE
:102D9000FF0E1A20DA6E15C0DFFF185004E1070E8F
:102DA000175CD8A0120020EE03F01D50D9261E504B
:102DB000DA2215C0DFFF17501D24196E18501E208F
:102DC0001A6EFC0E1924D96EFF0E1A20DA6E15C089
:102DD000DFFF185004E1090E175CD8A012001DC0D7
:102DE00019F01EC01AF0191E1A1E194A1A2A030ECB
:102DF00019141B6E1C6A1B501D261C501E221B50D2
:102E0000175E1C50185AFC0E1716FF0E18160BD022
:102E10001DC0D9FF1EC0DAFF15C0DFFF1706D8A0FE
:102E200018061D4A1E2A17501810D8B41200F0D7E1
:102E300001C00BF002C00CF005500610D8B412000F
:102E40000BC0D9FF0CC0DAFF03C0DFFF05500B2415
:102E5000076E06500C20086EFF0E0724D96EFF0E79
:102E60000820DA6E03C0DFFF065004E1030E055CA4
:102E7000D8A0120020EE01F00B50D9260C50DA2217
:102E800003C0DFFF20EE02F00B50D9260C50DA22EF
:102E900003C0DFFF05500B24076E06500C20086EA0
:102EA000FE0E0724D96EFF0E0820DA6E03C0DFFF86
:102EB00005500B24076E06500C20086EFD0E0724EB
:102EC000D96EFF0E0820DA6E03C0DFFF065004E162
:102ED000070E055CD8A0120020EE03F00B50D92697
:102EE0000C50DA2203C0DFFF05500B24076E06509A
:102EF0000C20086EFC0E0724D96EFF0E0820DA6E37
:102F000003C0DFFF065004E1090E055CD8A01200E3
:102F10000BC007F00CC008F0071E081E074A082A5D
:102F2000030E0714096E0A6A09500B260A500C2278
:102F30000950055E0A50065AFC0E0516FF0E0616CD
:102F40000BD00BC0D9FF0CC0DAFF03C0DFFF0506B2
:102F5000D8A006060B4A0C2A05500610D8B4120059
:102F6000F0D70F0EE06E0F0E956E000E8C6E930E66
:102F7000946E000E8B6E290E926E96909398939A93
:102F8000C00E936E000E8A6EB5EC19F0010E1D6E28
:102F9000100E1E6E25EC1FF00F0E0F01256F2589F8
:102FA000000E246F000E236F000EC16E0D0EC26E58
:102FB000C08EC050C70B1009C06EC050F80B050979
:102FC000C06E950EC06E9E9C9D9C9F9C000E416E97
:102FD000000E406E0B0E436EDC0E426E0B0E0001B7
:102FE000EF6FDC0EEE6F040ED56E000ED66E000E87
:102FF000D76E020ECD6E9E909F909D80F80ECF6E84
:10300000CC0ECE6ED08EF194F28AF28CF28ED58EEA
:10301000000E8C6E415004E1040E405CD8A0FAD73B
:10302000D550F80B0509D56EE70E436EA40E426E1F
:10303000240E0001EF6F380EEE6F8C98AC98AC84C4
:10304000AC8A330EAF6EAB8EAB889F9A9F989D8AE9
:103050009D986596200EC66E000EC76EC78EC78CF3
:10306000CD801200000E00016015686F000E611522
:10307000696F800E62156A6F7F0E63156B6F685102
:1030800069116A116B11D8A408D0000E606F000E90
:10309000616F000E626F000E636F000E6415686F43
:1030A000000E6515696F800E66156A6F7F0E6715D5
:1030B0006B6F685169116A116B11D8A408D0000EAA
:1030C000646F000E656F000E666F000E676F63AF72
:1030D00009D0606D611FD8B0612B621FD8B0622B20
:1030E000800E635767AF09D0646D651FD8B0652B3C
:1030F000661FD8B0662B800E6757000E601B000E4F
:10310000611B000E621B800E631B000E641B000E11
:10311000651B000E661B800E671B6451605D655168
:1031200061596651625967516359D8B002D0D8903D
:103130001200D8801200D0C01DF0D1C01EF0D2C045
:103140001FF0D3C020F013C01DF014C01EF015C036
:103150001FF016C020F01DC017F01EC018F01FC0D1
:1031600019F020C01AF0180E05D0D8901A32193272
:1031700018321732E82EF9D717501B6E1C6A1B50F5
:103180001C10D8A419D0D8901D34176E1E34186E98
:103190001F34196E20341A6E1750181019101A1097
:1031A000D8A405D0000E146E020E136E1200000E8D
:1031B000146E030E136E12001B281C10D8A41CD012
:1031C0001DC017F01EC018F01FC019F020C01AF063
:1031D000090ED8901736183619361A36E82EF9D750
:1031E0001750181019101A10D8A402D0010E01D0CF
:1031F000000E136E146A1200000E146E040E136E8D
:103200001200153416341C6E1C50D8A409D0000EC0
:10321000136E000E146E000E156E000E166E120068
:1032200013C017F014C018F015C019F016C01AF02A
:10323000200E05D0D8901A32193218321732E82EE3
:10324000F9D717501B6E158EFF0E1316FF0E1416AE
:10325000FF0E1516000E1616960E1C5E1CAE0DD037
:103260001C50800A970FD8A0D2D7D89016321532AA
:10327000143213321C3EF9D70DD01F0E1C6407D038
:10328000C6D7D89013361436153616361C061C5081
:10329000D8A4F7D71B50D8B408D0161E151E141E7C
:1032A000136C000E14221522162213C013F014C042
:1032B00014F015C015F016C016F0120013C01AF065
:1032C00014C01BF015C01CF016C01DF01706D8A0C6
:1032D000180617280FE11828D8A40CD0000E146E79
:1032E000000E136E12001A4A1B2A1C4A1D2A1706CA
:1032F000D8A018061AC0D9FF1BC0DAFFDF50D8B417
:1033000020D01CC0F6FF1DC0F7FF000EF86E0800AD
:10331000F5500009D8B415D017501810D8B411D0F2
:103320001AC0D9FF1BC0DAFFDF50196E1CC0F6FFB0
:103330001DC0F7FF000EF86E0800F5501918D8B43C
:10334000D2D71AC0D9FF1BC0DAFFDF50196E1CC0DC
:10335000F6FF1DC0F7FF000EF86E0800F550195C6F
:10336000136E146AD8A014061200000E146ED00E4C
:10337000136ECA0EE82EFED7132EFCD78A983AD0C9
:10338000000E8A6E8A8A0B0E1424F66EF76A100EEF
:10339000F722F86A000EF8220800F550F00B156EBF
:1033A00015380F0B156E155081108A6E8A9A340EDF
:1033B000136EF20EE82EFED7132EFCD7000E8A6E87
:1033C0008A8A0B0E1424F66EF76A100EF722F86A3A
:1033D000000EF8220800F5500F0B156E15508110E5
:1033E0008A6E8A9A340E136EF20EE82EFED7132ED2
:1033F000FCD7142A0B0E1424F66EF76A100EF7226F
:10340000F86A000EF8220800F5500009D8A4B8D7D1
:103410008A88120015501610D8B404D01550161012
:10342000D8A404D0135041EC1FF0120020EE04F099
:103430001550D9261650DA22DE50DE10D8B416D038
:1034400020EE04F01550D9261650DA2210EE02F0C4
:103450001550E1261650E222DE50E65CE650800A66
:103460001B6EDE50800A1B58D8B0120020EE02F00E
:103470001550D9261650DA22DECF17F0DDCF18F01E
:1034800015C0D9FF16C0DAFFDECF19F0DDCF1AF074
:1034900017501924D96E18501A20DA6E13C0DFFFA6
:1034A00020EE02F01550D9261650DA22DE2A000E40
:1034B000DD2212003CA00AD025C01CF026C01DF061
:1034C00023C01EF024C01FF081EC1EF028BE05D0E2
:1034D00027C02CF028C02DF004D0000E2D6E000E59
:1034E0002C6E000E2B6E000E2A6E0CD0000E146E89
:1034F000200E136E23C015F024C016F00AEC1AF04B
:103500002A4A2B2A2C502A5C2B50800A296E2D50D7
:10351000800A2958D8A0EAD73CB00AD025C01CF0B0
:1035200026C01DF023C01EF024C01FF081EC1EF049
:1035300025C013F026C014F0FDEC1EF02C5013240F
:10354000236E2D501420246E1200000E166E3BD0F8
:103550008A9A8150C00B8A6E1650D8A402D08A98DD
:1035600001D08A888A8A16501324D96E000E14203E
:10357000DA6EDF50F00B156E15380F0B156E155007
:1035800081108A6E8A9A420EE82EFED700D08150B2
:10359000C00B8A6E1650D8A402D08A9801D08A88AF
:1035A0008A8A16501324D96E000E1420DA6EDF506A
:1035B0000F0B156E155081108A6E8A9A420EE82EF6
:1035C000FED700D0162A16501324D96E000E1420F0
:1035D000DA6EDF50D8B41200BBD7000E13141B6E86
:1035E000000E14141C6E800E15141D6E7F0E161422
:1035F0001E6E1B501C101D101E10D8A408D0000EEB
:10360000136E000E146E000E156E000E166E000E78
:1036100017141B6E000E18141C6E800E19141D6EEC
:103620007F0E1A141E6E1B501C101D101E10D8A4E5
:1036300008D0000E176E000E186E000E196E000EE8
:103640001A6E175013180AE11850141807E1195090
:10365000151804E11A501618D8B402D0D8901200E8
:10366000D88012006C0EF66E3E0EF76E000EF86EED
:1036700001EEA2F010EE0CF00900F5CFEEFFE550E0
:10368000E150FAE17F0EF66E3E0EF76E000EF86E18
:103690000900F5CFFCF00900F5CFFDF07C0EF66EC9
:1036A0003E0EF76E000EF86E0900F5CF49F00900E6
:1036B000F5CF4AF00900F5CF4BF001EE00F0900E87
:1036C000EE6AE806FDE100EED0F02C0EEE6AE806A8
:1036D000FDE100EE3AF00F0EEE6AE806FDE14C90D7
:1036E0004C92000118EF1DF0000E186E16AE06D0B9
:1036F000156C161ED8B0162A010E186E14AE06D020
:10370000136C141ED8B0142A010E181A000E1A6E6B
:10371000000E196E15501610D8B41CD0010E176E7D
:1037200004D0D89015361636172A16AEFAD7D89088
:1037300019361A361550135C16501458D8A005D0F7
:103740001550135E1650145A1980D890163215323F
:10375000172EEDD71850D8B404D0196C1A1ED8B053
:103760001A2A19C013F01AC014F012008D904A5092
:103770003009C96EC7A0FED7C9CF47F049C0C9FFFD
:10378000C7A0FED7C9CF47F08D80FE0E495C3F0E23
:103790004A58D8A002D0010E01D0000E4B140009E7
:1037A000D8B404D0000E4B6E010E466E4904300EA4
:1037B0004A58D8B002D0010E01D0000E46140009BC
:1037C000D8B404D0010E4B6E000E466E4B50D8B4E8
:1037D00004D0020E4926000E4A224650D8B41200E8
:1037E000020E495E000E4A5A12000001E451E51132
:1037F000D8B412D0000EE56F000EE46F680E016EB3
:10380000010E026E000E046E000E036E000E066EB8
:10381000140E056E18EC17F0ABA403D0AECF48F031
:103820001200ABA203D0AB98AB881200680E000167
:10383000E625D96E010EE721DA6EAECFDFFF680E06
:10384000E625D96E010EE721DA6E0A0EDE18D8A43D
:1038500007D0000EE76F000EE66FE44BE52B120079
:10386000E64BE72B1200ECC013F0EDC014F0156A24
:10387000166A000EDFEC15F013C021F014C022F020
:1038800015C023F016C024F0ED0E256E320E266E04
:10389000530E276E3A0E286E1EEC0FF021C0D4F0A6
:1038A00022C0D5F023C0D6F024C0D7F07C0E010191
:1038B000906F010E916F1D0E926F100E936FD4C01A
:1038C00094F1D5C095F1D6C096F1D7C097F1A7EC89
:1038D0001DF0C00E01017C6F1200F0C013F0F1C0AA
:1038E00014F0156A166A000EDFEC15F013C021F013
:1038F00014C022F015C023F016C024F0C90E256EA6
:10390000FF0E266EA40E276E3D0E286E1EEC0FF0E5
:1039100021C0D8F022C0D9F023C0DAF024C0DBF0F7
:10392000860E0101906F010E916F120E926F100EB4
:10393000936FD8C094F1D9C095F1DAC096F1DBC08D
:1039400097F1A7EC1DF0800E0101866F1200415027
:1039500004E1040E405CD8A00ED08CA802D0010E69
:1039600001D0000EFF0A016E013A8C500118EF0BD6
:1039700001188C6E1200030E40184110D8A407D015
:10398000100E8C6E000E416E070E406E1200020E7D
:1039900040184110D8A405D0800E8C6E404A412AB0
:1039A000120040044110D8A402D0400EF6D7405077
:1039B0004110D8A402D0200EF0D7F00E8C6E120069
:1039C000000E186E14AE06D0136C141ED8B0142A54
:1039D000010E186E16AE04D0156C161ED8B0162A3D
:1039E00015501610D8B418D0010E176E04D0D89008
:1039F00015361636172A16AEFAD71550135C165020
:103A00001458D8A004D01550135E1650145AD890EC
:103A100016321532172EF1D71850D8B404D0136CC3
:103A2000141ED8B0142A13C013F014C014F01200DE
:103A3000B1EC17F0C250830B0C09C26E64EC1EF09F
:103A4000F2C0F0F0F3C0F1F0830EC21664EC1EF089
:103A5000F2C0ECF0F3C0EDF06DEC1CF033EC1CF0B8
:103A6000860E1D6E010E1E6E25EC1FF07C0E1D6E67
:103A7000010E1E6E25EC1FF00001E405E511D8B41F
:103A80006EEC14F00001E205E311D8A4D3D76EEC7C
:103A900014F0D0D78C8E26D09EA8FED7540E3E248C
:103AA000D96E010E3F20DA6EDF50D8B40CD0540E20
:103AB0003E24D96E010E3F20DA6EDF50AD6E00D08D
:103AC00000D000D000D0540E3E24D96E010E3F200D
:103AD000DA6EDF50D8A404D0000E3F6E120E3E6E98
:103AE0003E4A3F2A3F5005E1130E3E5CD8B012001B
:103AF000D3D71200CAC0CEF0CBC0CFF0000E000169
:103B0000DD6F000EDC6F13D0C8C0B0F0C9C0B1F0DB
:103B1000CE0EB26F000EB36FCCC0B4F0CDC0B5F016
:103B2000EAEC0CF00001B051DC27B151DD23CEC02E
:103B3000F6FFCFC0F7FF000EF86E0800F550000941
:103B4000D8A4E2D7DCC0C8F0DDC0C9F01200940EE2
:103B500001019A6F010E9B6F90C19CF191C19DF183
:103B6000000E9F6F000E9E6F000EA16F000EA06FE3
:103B70009C0E0001C86F010EC96F92C1CAF093C1BB
:103B8000CBF09A0ECC6F010ECD6F7AEC1DF00101D7
:103B90009E519025D96E9F519121DA6E000EDF6EF5
:103BA000120015C019F016C01AF013C01BF014C093
:103BB0001CF01950176E1A50186E194A1A2A17C09D
:103BC000F6FF18C0F7FF000EF86E1BC0D9FF1CC02F
:103BD000DAFF1B4A1C2A0F0EF76403D00800F550C9
:103BE00005D0F6CFE1FFF7CFE2FFE750DF6EDF5001
:103BF000D8B41200DED7BF0E1B6EFF0E1C6E19C0AC
:103C00001DF01AC01EF01B501D261C501E221E50F7
:103C100006E11A0E1D5CD8B002D0010E01D0000ED4
:103C20001F6E206A1F502010D8B406D0200E191025
:103C3000196E1A501A6E120019C019F01AC01AF033
:103C40001200000E0001641B000E651B000E661BB7
:103C5000800E671B60C013F061C014F062C015F0E5
:103C600063C016F064C017F065C018F066C019F0A4
:103C700067C01AF0C7EC10F013C060F014C061F018
:103C800015C062F016C063F01200010E196E200E0E
:103C900013181410D8B414D0F70E156EFF0E166E4C
:103CA00013C017F014C018F015501726165018221C
:103CB000185004E1050E175CD8A002D0000E196E52
:103CC00019C013F0146A1200000E456E000E446E07
:103CD000420EE82EFED700D0C282C2B2FED7420EFC
:103CE000E82EFED700D0C3CFF2F0C4CFF3F0444AA1
:103CF000452A455005E1030E445CD8B01200E8D7D0
:103D00001200000E226E000E216E0BD020C013F0A8
:103D1000146A1EC015F01FC016F00AEC1AF0214AF2
:103D2000222A21501C24D96E22501D20DA6EDF5029
:103D3000206E2050D8B41200E9D7A7EC1CF08CB844
:103D40000ED042C0D6FF4350D76E0001E205E3110A
:103D5000D8A40AD0000EE16F010EE06F05D0EEC0CE
:103D6000D6FF0001EF51D76EF2941200BF0E156E10
:103D7000FF0E166E13C017F014C018F0155017265A
:103D800016501822185006E11A0E175CD8B002D04F
:103D9000010E01D0000E136E146A1200D00E156EC3
:103DA000FF0E166E13C017F014C018F0155017262A
:103DB00016501822185006E10A0E175CD8B002D02F
:103DC000010E01D0000E136E146A1200135014106D
:103DD00015101610D8B408D0000E131A000E141ABD
:103DE000000E151A800E161A13C013F014C014F02A
:103DF00015C015F016C016F0120013C015F014C04F
:103E000016F002D0134A142A13C0D9FF14C0DAFFE7
:103E1000DF50D8A4F7D71550135C136E1650145802
:103E2000146E120013501502F3CF17F0F4CF18F0F0
:103E300013501602F350182614501502F35018268A
:103E400017C013F018C014F012001F0E136E000EEE
:103E5000146E1DC015F01EC016F0D1EC1DF01F0E23
:103E6000136E000E146EA5EC1AF01200ED32533AE8
:103E7000C9FFA43D801A06004C92110000300103D6
:013E80000041
:023E820012002C
:020000040020DA
:08000000FFFFFFFFFFFFFFFF00
:020000040030CA
:0E0000001D03727CF98B91FFFFC0FFE0FF40F3
:00000001FF
