:020000040000FA
:0400000020EF00F0FD
:060008001D823BEF09F030
:100018001D80D8CF02F0E8CF03F0E0CF04F0F2A4BF
:1000280003D0E5EC08F0FBD704C0E0FF03C0E8FF0D
:0C00380002C0D8FF1D9010002DEF09F051
:10100000008054455354494E4721003332280C0187
:03101000060000D7
:10101400000E066ED00E056ECA0EE82EFED7052E03
:10102400FCD78A9834D0000E8A6E8A8A0B0E062466
:10103400F66EF76A100EF7220800F550F00B076EF3
:1010440007380F0B076E075081108A6E8A9A340E88
:10105400056EF20EE82EFED7052EFCD7000E8A6E22
:101064008A8A0B0E0624F66EF76A100EF722080021
:10107400F5500F0B076E075081108A6E8A9A340E52
:10108400056EF20EE82EFED7052EFCD7062A0B0EAF
:101094000624F66EF76A100EF7220800F5500009D0
:1010A400D8A4C1D78A881200000E086E3BD08A9A51
:1010B4008150C00B8A6E0850D8A402D08A9801D0FF
:1010C4008A888A8A08500524D96E000E0620DA6EB2
:1010D400DF50F00B076E07380F0B076E07508110B7
:1010E4008A6E8A9A420EE82EFED700D08150C00B39
:1010F4008A6E0850D8A402D08A9801D08A888A8A35
:1011040008500524D96E000E0620DA6EDF500F0B4E
:10111400076E075081108A6E8A9A420EE82EFED717
:1011240000D0082A08500524D96E000E0620DA6E75
:10113400DF50D8B41200BBD70F0EE06E0F0E956EC1
:10114400000E8C6E930E946E000E8B6E9398939A91
:10115400C00E936E000E8A6E0AEC08F0010E0D6E3E
:10116400100E0E6E1CEC09F00F0125692469236929
:1011740092809286CF0EC116C196F80EC116C25047
:10118400830B0C09C26E830EC216C08EC050C70BEF
:101194001009C06EC050F80B0509C06E480ED56E1C
:1011A400000ED66E000ED76ED08EF194F28AF28CB9
:1011B400F28ED58E030ECD6E0A0EBB6E000E2D6F11
:1011C4009F90A5921200100E1B5C130E1C58D8B0F1
:1011D40003D01B4A1C2A11D08CA802D0010E01D0C6
:1011E400000EFF0A016E013A8C500118EF0B011832
:1011F4008C6E000E1C6E000E1B6EF294120007C063
:1012040009F008C00AF005C00BF006C00CF009C0D4
:10121400F6FF0AC0F7FF094A0A2A0BC0D9FF0CC01F
:10122400DAFF0B4A0C2A0800F5CFDFFFDF50D8B4F1
:101234001200EDD70F0E056E000E066E0DC007F0FE
:101244000EC008F001EC09F00F0E056E000E066EDC
:1012540056EC08F012001C6A1B6A1D901D92000EC9
:10126400F86E100EF76E000138EF09F09EEC08F0EE
:06127400FFD71D921100DE
:020000040020DA
:08000000FFFFFFFFFFFFFFFF00
:020000040030CA
:0E0000001D03727CF98B91FFFFC0FFE0FF40F3
:00000001FF
