:020000040000FA
:0600000000000EEF00F00D
:020006000000F8
:0400080004EF00F011
:080018000CEF00F009D88B7415
:1000200083D8AF0EE8CF02F0A3EC00F084D8F7D766
:10003000C00E936E000E8A6E000E946E000E8B6ED4
:10004000000E956E000E8C6E000EF26E080ED56ED0
:10005000630ED76EC00ED66EFA0E016ED58E0CD81A
:100060006AD8010EF76E920EF66E2BD8010EF76E5F
:100070009A0EF66E26D812000A0E006E5CD80006A4
:10008000FDE18A98010EF76E720EF66E08008A6A1C
:100090008A8AF550F00BE83881108A6E8A9A4BD81C
:1000A0008A6A8A8AF5500F0B81108A6E8A9A43D821
:1000B0000B00F552ECE11200410E006E0006FEE16D
:1000C00012008A980800F55201E10B00F00E8A1622
:1000D0008A8AF550F00BE83881108A6E8A9AF00E01
:1000E0008A168A8AF5500F0B81108A6E8A9AE4DF8D
:1000F0008A880B00F552EAE112008A98F00E8A16FF
:100100008A8AEF50F00BE83881108A6E8A9AF00ED6
:100110008A168A8AEF500F0B81108A6E8A9ACCDF7A
:100120008A88EC50EBE112008C98010603E1FA0E8C
:10013000016E8C881200F2A4FED7630ED76EC00E3B
:10014000D66EF2941200010EF76E840EF66EB9DFD1
:1001500000EE0BF0E86A0232E8363009ED6EE95045
:100160000308F8E100EE03F0C00E036E0C6AC5DF71
:100170001200333228010C06000080425954453DDC
:1001800020202000804153454E2035303637202036
:1001900020008048656C6C6F0000C0576F726C6403
:0201A00021003C
:020000040030CA
:010000001DE2
:0100010003FB
:010002006A93
:010003007C80
:010005008B6F
:00000001FF
